:1000000075820075830075D000E5D0F0740004F0AF
:10001000F582E5D0F0E58204F0F582E5D0F0E582E6
:1000200004F0F582E5D0F0E58204F0F582E5D0F049
:10003000E58204F0F582E5D0F0E58204F0F582E592
:10004000D0F0E58204F0F582E5D0F0E58204F0F529
:1000500082E5D0F0E58204F0F582E5D0F0E5820497
:10006000F0F582E5D0F0E58204F0F582E5D0F0E528
:100070008204F0F582E5D0F0E58204F0F582E5D067
:10008000F0E58204F0F582E5D0F0E58204F0F58237
:10009000E5D0F0E58204F0F582E5D0F0E58204F0E9
:1000A000F582E5D0F0E58204F0F582E5D0F0E58256
:1000B00004F0F582E5D0F0E58204F0F582E5D0F0B9
:1000C000E58204F0F582E5D0F0E58204F0F582E502
:1000D000D0F0E58204F0F582E5D0F0E58204F0F599
:1000E00082E5D0F0E58204F0F582E5D0F0E5820407
:1000F000F0F582E5D0F0E58204F0F582E5D0F0E598
:100100008204F0F582E5D0F0E58204F0F582E5D0D6
:10011000F0E58204F0F582E5D0F0E58204F0F582A6
:10012000E5D0F0E58204F0F582E5D0F0E58204F058
:10013000F582E5D0F0E58204F0F582E5D0F0E582C5
:1001400004F0F582E5D0F0E58204F0F582E5D0F028
:10015000E58204F0F582E5D0F0E58204F0F582E571
:10016000D0F0E58204F0F582E5D0F0E58204F0F508
:1001700082E5D0F0E58204F0F582E5D0F0E5820476
:10018000F0F582E5D0F0E58204F0F582E5D0F0E507
:100190008204F0F582E5D0F0E58204F0F582E5D046
:1001A000F0E58204F0F582E5D0F0E58204F0F58216
:1001B000E5D0F0E58204F0F582E5D0F0E58204F0C8
:1001C000F582E5D0F0E58204F0F582E5D0F0E58235
:1001D00004F0F582E5D0F0E58204F0F582E5D0F098
:1001E000E58204F0F582E5D0F0E58204F0F582E5E1
:1001F000D0F0E58204F0F582E5D0F0E58204F0F578
:1002000082E5D0F0E58204F0F582E5D0F0E58204E5
:10021000F0F582E5D0F0E58204F0F582E5D0F0E576
:100220008204F0F582E5D0F0E58204F0F582E5D0B5
:10023000F0E58204F0F582E5D0F0E58204F0F58285
:10024000E5D0F0E58204F0F582E5D0F0E58204F037
:10025000F582E5D0F0E58204F0F582E5D0F0E582A4
:1002600004F0F582E5D0F0E58204F0F582E5D0F007
:10027000E58204F0F582E5D0F0E58204F0F582E550
:10028000D0F0E58204F0F582E5D0F0E58204F0F5E7
:1002900082E5D0F0E58204F0F582E5D0F0E5820455
:1002A000F0F582E5D0F0E58204F0F582E5D0F0E5E6
:1002B0008204F0F582E5D0F0E58204F0F582E5D025
:1002C000F0E58204F0F582E5D0F0E58204F0F582F5
:1002D000E5D0F0E58204F0F582E5D0F0E58204F0A7
:1002E000F582E5D0F0E58204F0F582E5D0F0E58214
:1002F00004F0F582E5D0F0E58204F0F582E5D0F077
:10030000E58204F0F582E5D0F0E58204F0F582E5BF
:10031000D0F0E58204F0F582E5D0F0E58204F0F556
:1003200082E5D0F0E58204F0F582E5D0F0E58204C4
:10033000F0F582E5D0F0E58204F0F582E5D0F0E555
:100340008204F0F582E5D0F0E58204F0F582E5D094
:10035000F0E58204F0F582E5D0F0E58204F0F58264
:10036000E5D0F0E58204F0F582E5D0F0E58204F016
:10037000F582E5D0F0E58204F0F582E5D0F0E58283
:1003800004F0F582E5D0F0E58204F0F582E5D0F0E6
:10039000E58204F0F582E5D0F0E58204F0F582E52F
:1003A000D0F0E58204F0F582E5D0F0E58204F0F5C6
:1003B00082E5D0F0E58204F0F582E5D0F0E5820434
:1003C000F0F582E5D0F0E58204F0F582E5D0F0E5C5
:1003D0008204F0F582E5D0F0E58204F0F582E5D004
:1003E000F0E58204F0F582E5D0F0E58204F0F582D4
:1003F000E5D0F0E58204F0F582E5D0F0E58204F086
:10040000F582E5D0F0E58204F0F582E5D0F0E582F2
:1004100004F0F582E5D0F0E58204F0F582E5D0F055
:10042000E58204F0F582E5D0F0E58204F0F582E59E
:10043000D0F0E58204F0F582E5D0F0E58204F0F535
:1004400082E5D0F0E58204F0F582E5D0F0E58204A3
:10045000F0F582E5D0F0E58204F0F582E5D0F0E534
:100460008204F0F582E5D0F0E58204F0F582E5D073
:10047000F0E58204F0F582E5D0F0E58204F0F58243
:10048000E5D0F0E58204F0F582E5D0F0E58204F0F5
:10049000F582E5D0F0E58204F0F582E5D0F0E58262
:1004A00004F0F582E5D0F0E58204F0F582E5D0F0C5
:1004B000E58204F0F582E5D0F0E58204F0F582E50E
:1004C000D0F0E58204F0F582E5D0F0E58204F0F5A5
:1004D00082E5D0F0E58204F0F582E5D0F0E5820413
:1004E000F0F582E5D0F0E58204F0F582E5D0F0E5A4
:1004F0008204F0F582E5D0F0E58204F0F582E5D0E3
:10050000F0E58204F0F582E5D0F0E58204F0F582B2
:10051000E5D0F0E58204F0F582E5D0F0E58204F064
:10052000F582E5D0F0E58204F0F582E5D0F0E582D1
:1005300004F0F582E5D0F0E58204F0F582E5D0F034
:10054000E58204F0F582E5D0F0E58204F0F582E57D
:10055000D0F0E58204F0F582E5D0F0E58204F0F514
:1005600082E5D0F0E58204F0F582E5D0F0E5820482
:10057000F0F582E5D0F0E58204F0F582E5D0F0E513
:100580008204F0F582E5D0F0E58204F0F582E5D052
:10059000F0E58204F0F582E5D0F0E58204F0F58222
:1005A000E5D0F0E58204F0F582E5D0F0E58204F0D4
:1005B000F582E5D0F0E58204F0F582E5D0F0E58241
:1005C00004F0F582E5D0F0E58204F0F582E5D0F0A4
:1005D000E58204F0F582E5D0F0E58204F0F582E5ED
:1005E000D0F0E58204F0F582E5D0F0E58204F0F584
:1005F00082E5D0F0E58204F0F582E5D0F0E58204F2
:10060000F0F582E5D0F0E58204F0F582E5D0F0E582
:100610008204F0F582E5D0F0E58204F0F582E5D0C1
:10062000F0E58204F0F582E5D0F0E58204F0F58291
:10063000E5D0F0E58204F0F582E5D0F0E58204F043
:10064000F582E5D0F0E58204F0F582E5D0F0E582B0
:1006500004F0F582E5D0F0E58204F0F582E5D0F013
:10066000E58204F0F582E5D0F0E58204F0F582E55C
:10067000D0F0E58204F0F582E5D0F0E58204F0F5F3
:1006800082E5D0F0E58204F0F582E5D0F0E5820461
:10069000F0F582E5D0F0E58204F0F582E5D0F0E5F2
:1006A0008204F0F582E5D0F0E58204F0F582E5D031
:1006B000F0E58204F0F582E5D0F0E58204F0F58201
:1006C000E5D0F0E58204F0F582E5D0F0E58204F0B3
:1006D000F582E5D0F0E58204F0F582E5D0F0E58220
:1006E00004F0F582E5D0F0E58204F0F582E5D0F083
:1006F000E58204F0F582E5D0F0E58204F0F582E5CC
:10070000D0F0E58204F0F582E5D0F0E58204F0F562
:1007100082E5D0F0E58204F0F582E5D0F0E58204D0
:10072000F0F582E5D0F0E58204F0F582E5D0F0E561
:100730008204F0F582E5D0F0E58204F0F582E5D0A0
:10074000F0E58204F0F582E5D0F0E58204F0F58270
:10075000E5D0F0E58204F0F582E5D0F0E58204F022
:10076000F582E5D0F0E58204F0F582E5D0F0E5828F
:1007700004F0F582E5D0F0E58204F0F582E5D0F0F2
:10078000E58204F0F582E5D0F0E58204F0F582E53B
:10079000D0F0E58204F0F582E5D0F0E58204F0F5D2
:1007A00082E5D0F0E58204F0F582E5D0F0E5820440
:1007B000F0F582E5D0F0E58204F0F582E5D0F0E5D1
:1007C0008204F0F582E5D0F0E58204F0F582E5D010
:1007D000F0E58204F0F582E5D0F0E58204F0F582E0
:1007E000E5D0F0E58204F0F582E5D0F0E58204F092
:1007F000F582E5D0F0E58204F0F582E5D0F0E582FF
:1008000004F0F582E5D0F0E58204F0F582E5D0F061
:10081000E58204F0F582E5D0F0E58204F0F582E5AA
:10082000D0F0E58204F0F582E5D0F0E58204F0F541
:1008300082E5D0F0E58204F0F582E5D0F0E58204AF
:10084000F0F582E5D0F0E58204F0F582E5D0F0E540
:100850008204F0F582E5D0F0E58204F0F582E5D07F
:10086000F0E58204F0F582E5D0F0E58204F0F5824F
:10087000E5D0F0E58204F0F582E5D0F0E58204F001
:10088000F582E5D0F0E58204F0F582E5D0F0E5826E
:1008900004F0F582E5D0F0E58204F0F582E5D0F0D1
:1008A000E58204F0F582E5D0F0E58204F0F582E51A
:1008B000D0F0E58204F0F582E5D0F0E58204F0F5B1
:1008C00082E5D0F0E58204F0F582E5D0F0E582041F
:1008D000F0F582E5D0F0E58204F0F582E5D0F0E5B0
:1008E0008204F0F582E5D0F0E58204F0F582E5D0EF
:1008F000F0E58204F0F582E5D0F0E58204F0F582BF
:10090000E5D0F0E58204F0F582E5D0F0E58280FEE6
:00000001FF
