:1000000075820075830075D000E5D0F07801760721
:10001000B6030100E5D0F07802760EB6060100E5E1
:10002000D0F078037616B6090100E5D0F0780476B2
:100030001DB60C0100E5D0F078057625B60F01005D
:10004000E5D0F07806762CB6130100E5D0F07807FD
:100050007634B6160100E5D0F07808763BB6190183
:1000600000E5D0F078097643B61C0100E5D0F078C1
:100070000A764AB61F0100E5D0F0780B7652B62317
:100080000100E5D0F0780C7659B6260100E5D0F0F5
:10009000780D7661B6290100E5D0F0780E7668B665
:1000A0002C0100E5D0F0780F766FB62F0100E5D077
:1000B000F078107677B6330100E5D0F07811767ECF
:1000C000B6360100E5D0F078127686B6390100E543
:1000D000D0F07813768DB63C0100E5D0F078147638
:1000E00095B63F0100E5D0F07815769CB643010047
:1000F000E5D0F0781676A4B6460100E5D0F0781782
:1001000076ABB6490100E5D0F0781876B3B64C016D
:1001100000E5D0F0781976BAB64F0100E5D0F07856
:100120001A76C2B6530100E5D0F0781B76C9B656F0
:100130000100E5D0F0781C76D1B6590100E5D0F089
:10014000781D76D8B65C0100E5D0F0781E76DFB673
:100150005F0100E5D0F0781F76E7B6630100E5D0D7
:10016000F0782076EEB6660100E5D0F0782176F6DC
:10017000B6690100E5D0F0782276FDB66C0100E5A5
:10018000D0F078237605B66F0100E5D0F0782476BC
:100190000CB6730100E5D0F078257614B676010030
:1001A000E5D0F07826761BB6790100E5D0F0782707
:1001B0007623B67C0100E5D0F07828762AB67F0158
:1001C00000E5D0F078297632B6830100E5D0F078EA
:1001D0002A7639B6860100E5D0F0782B7641B689CB
:1001E0000100E5D0F0782C7648B68C0100E5D0F01F
:1001F000782D764FB68F0100E5D0F0782E7657B681
:10020000930100E5D0F0782F765EB6960100E5D038
:10021000F078307666B6990100E5D0F07831766DE9
:10022000B69C0100E5D0F078327675B69F0100E506
:10023000D0F07833767CB6A30100E5D0F078347640
:1002400084B6A60100E5D0F07835768BB6A901001A
:10025000E5D0F078367693B6AC0100E5D0F078378B
:10026000769AB6AF0100E5D0F0783876A2B6B30141
:1002700000E5D0F0783976A9B6B60100E5D0F0787F
:100280003A76B1B6B90100E5D0F0783B76B8B6BCA5
:100290000100E5D0F0783C76B0B6BF0100E5D0F0C3
:1002A000783D76B7B6C30100E5D0F0783E76BEB6AD
:1002B000C60100E5D0F0783F76C6B6C90100E5D0AA
:1002C000F0784076CDB6CC0100E5D0F0784176D517
:1002D000B6CF0100E5D0F0784276DCB6D30100E578
:1002E000D0F0784376E4B6D60100E5D0F0784476D5
:1002F000EBB6D90100E5D0F0784576F3B6DC010025
:10030000E5D0F0784676FAB6DF0100E5D0F0784720
:100310007602B6E30100E5D0F078487609B6E6014A
:1003200000E5D0F078497611B6E90100E5D0F07823
:100330004A7618B6EC0100E5D0F0784B761FB6EFA0
:100340000100E5D0F0784C7627B6F30100E5D0F057
:10035000784D762EB6F60100E5D0F0784E7636B6BA
:10036000F90100E5D0F0784F763DB6FC0100E5D00C
:10037000F078507645B6FF0100E5D0F07851764C24
:10038000B6030100E5D0F078527654B6060100E5D8
:10039000D0F07853765BB6090100E5D0F07854765A
:1003A00063B60C0100E5D0F07855766AB60F01000F
:1003B000E5D0F078567672B6130100E5D0F07857A4
:1003C0007679B6160100E5D0F078587681B6190135
:1003D00000E5D0F078597688B61C0100E5D0F078B9
:1003E0005A768FB61F0100E5D0F0785B7697B6237A
:1003F0000100E5D0F0785C769EB6260100E5D0F0ED
:10040000785D76A6B6290100E5D0F0785E76ADB6C7
:100410002C0100E5D0F0785F76B5B62F0100E5D06D
:10042000F0786076BCB6330100E5D0F0786176C430
:10043000B6360100E5D0F0786276CBB6390100E53A
:10044000D0F0786376D3B63C0100E5D0F0786476DE
:10045000DAB63F0100E5D0F0786576E2B6430100F8
:10046000E5D0F0786676E9B6460100E5D0F0786729
:1004700076F1B6490100E5D0F0786876F8B64C011F
:1004800000E5D0F0786976FFB64F0100E5D0F0784E
:100490006A7607B6530100E5D0F0786B760EB65653
:1004A0000100E5D0F0786C7616B6590100E5D0F081
:1004B000786D761DB65C0100E5D0F0786E7625B6D5
:1004C0005F0100E5D0F0786F762CB6630100E5D0CF
:1004D000F078707634B6660100E5D0F07871763B3E
:1004E000B6690100E5D0F078727643B66C0100E59C
:1004F000D0F07873764AB66F0100E5D0F078747664
:1005000052B6730100E5D0F078757659B6760100E1
:10051000E5D0F078767661B6790100E5D0F07877AD
:100520007668B67C0100E5D0F07878766FB67F010A
:1005300000E5D0F078797677B6830100E5D0F078E1
:100540007A767EB6860100E5D0F0787B7686B6892D
:100550000100E5D0F0787C768DB68C0100E5D0F016
:10056000787D7695B68F0100E5D0F0787E769CB6E2
:10057000930100E5D0F0787F76A4B6960100E5D02F
:0C058000F0783A7628B6280100E5D0F0AB
:10060000783A7628B6010100E5D0F078287664754E
:0A0610008204B6017E7582738079C2
:10069300E5D0F0781F7652758251B61905758285BB
:0506A30080000215B209
:10154400E5D0F0787F7601758229B6017975823706
:021554008074A1
:1015B200E5D0F0784F76FF758274B6FF857582921A
:0215C200808027
:0315CA00021FFEFF
:101FDA00E5D0F0782776EA758295B6A80575827DF0
:051FEA008000024A54D2
:101FFE00E5D0F0785E76FF758240B6FECF7582032F
:02200E0080CA86
:03499F0002B20061
:1049FE00E5D0F0783A7663758232B6649475829A11
:024A0E00808F97
:104A5400E5D0F078297655758263B6559D758297B1
:024A6400809838
:10B20000E5D0F0783D76AA758293B6AA7675821954
:02B2100080714B
:10B28300E5D0F078617615758263B6D20875829F32
:0AB293008003000000E5D0F080FE0B
:00000001FF
