:1000000075820075830075D000E5D0F0C37400944C
:1000100000F0E5D0F0D374009400F0E5D0F0C374A4
:10002000C39401F0E5D0F0D374C39401F0E5D0F0AF
:10003000C3744A9402F0E5D0F0D3744A9402F0E518
:10004000D0F0C374429403F0E5D0F0D3744294032B
:10005000F0E5D0F0C374569404F0E5D0F0D37456B4
:100060009404F0E5D0F0C374179405F0E5D0F0D314
:1000700074179405F0E5D0F0C3741C9406F0E5D035
:10008000F0D3741C9406F0E5D0F0C374049407F028
:10009000E5D0F0D374049407F0E5D0F0C374D594A0
:1000A00008F0E5D0F0D374D59408F0E5D0F0C3742F
:1000B000B49409F0E5D0F0D374B49409F0E5D0F02D
:1000C000C374AC940AF0E5D0F0D374AC940AF0E5B4
:1000D000D0F0C374A4940BF0E5D0F0D374A4940BC7
:1000E000F0E5D0F0C37424940CF0E5D0F0D3742480
:1000F000940CF0E5D0F0C37463940DF0E5D0F0D328
:100100007463940DF0E5D0F0C374C4940EF0E5D0A0
:10011000F0D374C4940EF0E5D0F0C37472940FF071
:10012000E5D0F0D37472940FF0E5D0F0C374D4949A
:1001300010F0E5D0F0D374D49410F0E5D0F0C3748F
:10014000BE9411F0E5D0F0D374BE9411F0E5D0F078
:10015000C3747D9412F0E5D0F0D3747D9412F0E571
:10016000D0F0C374C09413F0E5D0F0D374C09413EE
:10017000F0E5D0F0C374229414F0E5D0F0D37422EB
:100180009414F0E5D0F0C374709415F0E5D0F0D37A
:1001900074709415F0E5D0F0C374809416F0E5D037
:1001A000F0D374809416F0E5D0F0C374B99417F0CE
:1001B000E5D0F0D374B99417F0E5D0F0C374BA94D5
:1001C00018F0E5D0F0D374BA9418F0E5D0F0C37409
:1001D000839419F0E5D0F0D374839419F0E5D0F04E
:1001E000C374A8941AF0E5D0F0D374A8941AF0E57B
:1001F000D0F0C374E9941BF0E5D0F0D374E9941BFC
:10020000F0E5D0F0C374E3941CF0E5D0F0D374E3D0
:10021000941CF0E5D0F0C374A4941DF0E5D0F0D3A5
:1002200074A4941DF0E5D0F0C3741B941EF0E5D0C7
:10023000F0D3741B941EF0E5D0F0C3747D941FF0CE
:10024000E5D0F0D3747D941FF0E5D0F0C3747894BA
:1002500020F0E5D0F0D374789420F0E5D0F0C374AA
:10026000EA9421F0E5D0F0D374EA9421F0E5D0F0DF
:10027000C374509422F0E5D0F0D374509422F0E58A
:10028000D0F0C374AE9423F0E5D0F0D374AE9423D1
:10029000F0E5D0F0C374BB9424F0E5D0F0D374BB88
:1002A0009424F0E5D0F0C374229425F0E5D0F0D387
:1002B00074229425F0E5D0F0C374DB9426F0E5D0E9
:1002C000F0D374DB9426F0E5D0F0C3748C9427F05F
:1002D000E5D0F0D3748C9427F0E5D0F0C374A494E7
:1002E00028F0E5D0F0D374A49428F0E5D0F0C374DE
:1002F000199429F0E5D0F0D374199429F0E5D0F0E1
:10030000C3744D942AF0E5D0F0D3744D942AF0E5EF
:10031000D0F0C37424942BF0E5D0F0D37424942B44
:10032000F0E5D0F0C3748E942CF0E5D0F0D3748E49
:10033000942CF0E5D0F0C37422942DF0E5D0F0D3E6
:100340007422942DF0E5D0F0C37442942EF0E5D0E1
:10035000F0D37442942EF0E5D0F0C37487942FF05C
:10036000E5D0F0D37487942FF0E5D0F0C3744294B5
:1003700030F0E5D0F0D374429430F0E5D0F0C3749F
:100380009B9431F0E5D0F0D3749B9431F0E5D0F03C
:10039000C374B19432F0E5D0F0D374B19432F0E587
:1003A000D0F0C374109433F0E5D0F0D374109433CC
:1003B000F0E5D0F0C3741B9434F0E5D0F0D3741B97
:1003C0009434F0E5D0F0C374C59435F0E5D0F0D3A3
:1003D00074C59435F0E5D0F0C374969436F0E5D04A
:1003E000F0D374969436F0E5D0F0C374B79437F038
:1003F000E5D0F0D374B79437F0E5D0F0C3745C94D3
:1004000038F0E5D0F0D3745C9438F0E5D0F0C374E4
:10041000C29439F0E5D0F0D374C29439F0E5D0F04D
:10042000C37411943AF0E5D0F0D37411943AF0E526
:10043000D0F0C37402943BF0E5D0F0D37402943B47
:10044000F0E5D0F0C374A3943CF0E5D0F0D374A3EE
:10045000943CF0E5D0F0C37483943DF0E5D0F0D344
:100460007483943DF0E5D0F0C3745C943EF0E5D025
:10047000F0D3745C943EF0E5D0F0C37444943FF044
:10048000E5D0F0D37444943FF0E5D0F0C3749A946F
:1004900040F0E5D0F0D3749A9440F0E5D0F0C37406
:1004A000D49441F0E5D0F0D374D49441F0E5D0F089
:1004B000C374749442F0E5D0F0D374749442F0E5C0
:1004C000D0F0C374BB9443F0E5D0F0D374BB944335
:1004D000F0E5D0F0C3748A9444F0E5D0F0D3748A88
:1004E0009444F0E5D0F0C374689445F0E5D0F0D3BF
:1004F00074689445F0E5D0F0C3748D9446F0E5D06F
:10050000F0D3748D9446F0E5D0F0C374A19447F015
:10051000E5D0F0D374A19447F0E5D0F0C37476949D
:1005200048F0E5D0F0D374769448F0E5D0F0C37489
:10053000109449F0E5D0F0D374109449F0E5D0F070
:10054000C3748A944AF0E5D0F0D3748A944AF0E5F3
:10055000D0F0C3741D944BF0E5D0F0D3741D944BD0
:10056000F0E5D0F0C374CA944CF0E5D0F0D374CA6F
:10057000944CF0E5D0F0C374D4944DF0E5D0F0D3B2
:1005800074D4944DF0E5D0F0C374AB944EF0E5D044
:10059000F0D374AB944EF0E5D0F0C37479944FF07F
:1005A000E5D0F0D37479944FF0E5D0F0C374239480
:1005B00050F0E5D0F0D374239450F0E5D0F0C3743C
:1005C000E59451F0E5D0F0D374E59451F0E5D0F026
:1005D000C3741E9452F0E5D0F0D3741E9452F0E52B
:1005E000D0F0C374409453F0E5D0F0D374409453EA
:1005F000F0E5D0F0C3741D9454F0E5D0F0D3741D31
:100600009454F0E5D0F0C3748A9455F0E5D0F0D35B
:10061000748A9455F0E5D0F0C3741A9456F0E5D07E
:10062000F0D3741A9456F0E5D0F0C374049457F0E4
:10063000E5D0F0D374049457F0E5D0F0C374D894A7
:1006400058F0E5D0F0D374D89458F0E5D0F0C374E6
:10065000469459F0E5D0F0D374469459F0E5D0F0C3
:10066000C374D5945AF0E5D0F0D374D5945AF0E51C
:10067000D0F0C37457945BF0E5D0F0D37457945B1B
:10068000F0E5D0F0C3741C945CF0E5D0F0D3741C9A
:10069000945CF0E5D0F0C374B2945DF0E5D0F0D393
:1006A00074B2945DF0E5D0F0C374D7945EF0E5D0F9
:1006B000F0D374D7945EF0E5D0F0C3741D945FF06E
:1006C000E5D0F0D3741D945FF0E5D0F0C37463946B
:1006D00060F0E5D0F0D374639460F0E5D0F0C374BB
:1006E000C89461F0E5D0F0D374C89461F0E5D0F01F
:1006F000C374199462F0E5D0F0D374199462F0E5F4
:10070000D0F0C374D89463F0E5D0F0D374D8946378
:10071000F0E5D0F0C374469464F0E5D0F0D37446AD
:100720009464F0E5D0F0C374329465F0E5D0F0D372
:1007300074329465F0E5D0F0C374AE9466F0E5D001
:10074000F0D374AE9466F0E5D0F0C3749A9467F079
:10075000E5D0F0D3749A9467F0E5D0F0C374819437
:1007600068F0E5D0F0D374819468F0E5D0F0C374FC
:10077000B29469F0E5D0F0D374B29469F0E5D0F0AA
:10078000C3743D946AF0E5D0F0D3743D946AF0E50B
:10079000D0F0C374A6946BF0E5D0F0D374A6946B3C
:1007A000F0E5D0F0C374E2946CF0E5D0F0D374E2DD
:1007B000946CF0E5D0F0C37402946DF0E5D0F0D302
:1007C0007402946DF0E5D0F0C37405946EF0E5D03A
:1007D000F0D37405946EF0E5D0F0C37455946FF0C7
:1007E000E5D0F0D37455946FF0E5D0F0C37416944F
:1007F00070F0E5D0F0D374169470F0E5D0F0C374C7
:10080000769471F0E5D0F0D374769471F0E5D0F081
:10081000C374AC9472F0E5D0F0D374AC9472F0E58C
:10082000D0F0C374839473F0E5D0F0D374839473E1
:10083000F0E5D0F0C374589474F0E5D0F0D3745858
:100840009474F0E5D0F0C374D99475F0E5D0F0D38A
:1008500074D99475F0E5D0F0C3743A9476F0E5D08D
:10086000F0D3743A9476F0E5D0F0C3748D9477F0B9
:10087000E5D0F0D3748D9477F0E5D0F0C37455943F
:1008800078F0E5D0F0D374559478F0E5D0F0C374E7
:100890009B9479F0E5D0F0D3749B9479F0E5D0F097
:1008A000C37463947AF0E5D0F0D37463947AF0E57E
:1008B000D0F0C374AC947BF0E5D0F0D374AC947BEF
:1008C000F0E5D0F0C374BD947CF0E5D0F0D374BDF6
:1008D000947CF0E5D0F0C3742B947DF0E5D0F0D398
:1008E000742B947DF0E5D0F0C37444947EF0E5D091
:1008F000F0D37444947EF0E5D0F0C374A6947FF0F6
:10090000E5D0F0D374A6947FF0E5D0F0C374E29400
:1009100080F0E5D0F0D374E29480F0E5D0F0C374B9
:10092000039481F0E5D0F0D374039481F0E5D0F026
:10093000C374D49482F0E5D0F0D374D49482F0E5FB
:10094000D0F0C374CB9483F0E5D0F0D374CB948310
:10095000F0E5D0F0C374E49484F0E5D0F0D374E40F
:100960009484F0E5D0F0C3745C9485F0E5D0F0D3C6
:10097000745C9485F0E5D0F0C374039486F0E5D000
:10098000F0D374039486F0E5D0F0C374079487F035
:10099000E5D0F0D374079487F0E5D0F0C374609489
:1009A00088F0E5D0F0D374609488F0E5D0F0C3749B
:1009B0002A9489F0E5D0F0D3742A9489F0E5D0F038
:1009C000C37445948AF0E5D0F0D37445948AF0E579
:1009D000D0F0C37483948BF0E5D0F0D37483948B00
:1009E000F0E5D0F0C37424948CF0E5D0F0D37424F7
:1009F000948CF0E5D0F0C3741A948DF0E5D0F0D368
:100A0000741A948DF0E5D0F0C3744B948EF0E5D059
:100A1000F0D3744B948EF0E5D0F0C37498948FF0BB
:100A2000E5D0F0D37498948FF0E5D0F0C374D094EF
:100A300090F0E5D0F0D374D09490F0E5D0F0C3748A
:100A40003D9491F0E5D0F0D3743D9491F0E5D0F071
:100A5000C374A09492F0E5D0F0D374A09492F0E522
:100A6000D0F0C374229493F0E5D0F0D37422949321
:100A7000F0E5D0F0C374669494F0E5D0F0D37466DA
:100A80009494F0E5D0F0C374209495F0E5D0F0D3C1
:100A900074209495F0E5D0F0C3747B9496F0E5D083
:100AA000F0D3747B9496F0E5D0F0C374839497F000
:100AB000E5D0F0D374839497F0E5D0F0C374C0947C
:100AC00098F0E5D0F0D374C09498F0E5D0F0C374FA
:100AD000719499F0E5D0F0D374719499F0E5D0F069
:100AE000C37459949AF0E5D0F0D37459949AF0E510
:100AF000D0F0C3743C949BF0E5D0F0D3743C949B4D
:100B0000F0E5D0F0C37476949CF0E5D0F0D3747621
:100B1000949CF0E5D0F0C3740E949DF0E5D0F0D332
:100B2000740E949DF0E5D0F0C37420949EF0E5D04F
:100B3000F0D37420949EF0E5D0F0C37401949FF03C
:100B4000E5D0F0D37401949FF0E5D0F0C374CE9457
:100B5000A0F0E5D0F0D374CE94A0F0E5D0F0C3744B
:100B60001394A1F0E5D0F0D3741394A1F0E5D0F084
:100B7000C374BE94A2F0E5D0F0D374BE94A2F0E5A5
:100B8000D0F0C3747094A3F0E5D0F0D3747094A344
:100B9000F0E5D0F0C3748C94A4F0E5D0F0D3748C5D
:100BA00094A4F0E5D0F0C374D794A5F0E5D0F0D3C9
:100BB00074D794A5F0E5D0F0C3749E94A6F0E5D068
:100BC000F0D3749E94A6F0E5D0F0C374BA94A7F065
:100BD000E5D0F0D374BA94A7F0E5D0F0C374DE94F6
:100BE000A8F0E5D0F0D374DE94A8F0E5D0F0C3749B
:100BF000AB94A9F0E5D0F0D374AB94A9F0E5D0F0B4
:100C0000C3740594AAF0E5D0F0D3740594AAF0E576
:100C1000D0F0C3744194ABF0E5D0F0D3744194AB01
:100C2000F0E5D0F0C374B394ACF0E5D0F0D374B376
:100C300094ACF0E5D0F0C374CD94ADF0E5D0F0D332
:100C400074CD94ADF0E5D0F0C3740D94AEF0E5D062
:100C5000F0D3740D94AEF0E5D0F0C374D794AFF038
:100C6000E5D0F0D374D794AFF0E5D0F0C374A59479
:100C7000B0F0E5D0F0D374A594B0F0E5D0F0C37433
:100C80006B94B1F0E5D0F0D3746B94B1F0E5D0F093
:100C9000C374A594B2F0E5D0F0D374A594B2F0E596
:100CA000D0F0C3749794B3F0E5D0F0D3749794B3B5
:100CB000F0E5D0F0C374E194B4F0E5D0F0D374E182
:100CC00094B4F0E5D0F0C374E094B5F0E5D0F0D37F
:100CD00074E094B5F0E5D0F0C3749594B6F0E5D027
:100CE000F0D3749594B6F0E5D0F0C3747994B7F06E
:100CF000E5D0F0D3747994B7F0E5D0F0C374C9941B
:100D0000B8F0E5D0F0D374C994B8F0E5D0F0C3746E
:100D1000E794B9F0E5D0F0D374E794B9F0E5D0F0FA
:100D2000C3747E94BAF0E5D0F0D3747E94BAF0E543
:100D3000D0F0C3743294BBF0E5D0F0D3743294BBDE
:100D4000F0E5D0F0C3746A94BCF0E5D0F0D3746AD7
:100D500094BCF0E5D0F0C374B094BDF0E5D0F0D30E
:100D600074B094BDF0E5D0F0C3749C94BEF0E5D0AF
:100D7000F0D3749C94BEF0E5D0F0C3746294BFF0DD
:100D8000E5D0F0D3746294BFF0E5D0F0C3749194D1
:100D9000C0F0E5D0F0D3749194C0F0E5D0F0C37406
:100DA000EB94C1F0E5D0F0D374EB94C1F0E5D0F052
:100DB000C374D694C2F0E5D0F0D374D694C2F0E5F3
:100DC000D0F0C3740394C3F0E5D0F0D3740394C39C
:100DD000F0E5D0F0C3748D94C4F0E5D0F0D3748DF9
:100DE00094C4F0E5D0F0C3740794C5F0E5D0F0D317
:100DF000740794C5F0E5D0F0C374DD94C6F0E5D077
:100E0000F0D374DD94C6F0E5D0F0C374CA94C7F093
:100E1000E5D0F0D374CA94C7F0E5D0F0C374E3947E
:100E2000C8F0E5D0F0D374E394C8F0E5D0F0C37413
:100E30002994C9F0E5D0F0D3742994C9F0E5D0F035
:100E4000C374C294CAF0E5D0F0D374C294CAF0E57A
:100E5000D0F0C3740C94CBF0E5D0F0D3740C94CBE9
:100E6000F0E5D0F0C3748794CCF0E5D0F0D374876C
:100E700094CCF0E5D0F0C3746294CDF0E5D0F0D31B
:100E8000746294CDF0E5D0F0C374BD94CEF0E5D09B
:100E9000F0D374BD94CEF0E5D0F0C3741894CFF0C5
:100EA000E5D0F0D3741894CFF0E5D0F0C374B394C8
:100EB000D0F0E5D0F0D374B394D0F0E5D0F0C374A3
:100EC0007694D1F0E5D0F0D3747694D1F0E5D0F0FB
:100ED000C3747A94D2F0E5D0F0D3747A94D2F0E56A
:100EE000D0F0C374B494D3F0E5D0F0D374B494D3F9
:100EF000F0E5D0F0C3740994D4F0E5D0F0D37409D0
:100F000094D4F0E5D0F0C3744094D5F0E5D0F0D39C
:100F1000744094D5F0E5D0F0C3746394D6F0E5D076
:100F2000F0D3746394D6F0E5D0F0C3741994D7F07D
:100F3000E5D0F0D3741994D7F0E5D0F0C374C5941C
:100F4000D8F0E5D0F0D374C594D8F0E5D0F0C374F0
:100F50004794D9F0E5D0F0D3744794D9F0E5D0F0B8
:100F6000C374DA94DAF0E5D0F0D374DA94DAF0E509
:100F7000D0F0C3746194DBF0E5D0F0D3746194DBFE
:100F8000F0E5D0F0C374C394DCF0E5D0F0D374C3C3
:100F900094DCF0E5D0F0C3740594DDF0E5D0F0D337
:100FA000740594DDF0E5D0F0C374DC94DEF0E5D098
:100FB000F0D374DC94DEF0E5D0F0C3746394DFF01A
:100FC000E5D0F0D3746394DFF0E5D0F0C37465949A
:100FD000E0F0E5D0F0D3746594E0F0E5D0F0C374B0
:100FE0009694E1F0E5D0F0D3749694E1F0E5D0F07A
:100FF000C3749B94E2F0E5D0F0D3749B94E2F0E5E7
:10100000D0F0C374C694E3F0E5D0F0D374C694E393
:10101000F0E5D0F0C3748994E4F0E5D0F0D374899E
:1010200094E4F0E5D0F0C3744394E5F0E5D0F0D358
:10103000744394E5F0E5D0F0C3746A94E6F0E5D02B
:10104000F0D3746A94E6F0E5D0F0C3749294E7F0BC
:10105000E5D0F0D3749294E7F0E5D0F0C374E09457
:10106000E8F0E5D0F0D374E094E8F0E5D0F0C37494
:101070004D94E9F0E5D0F0D3744D94E9F0E5D0F06B
:10108000C3747794EAF0E5D0F0D3747794EAF0E58E
:10109000D0F0C374DA94EBF0E5D0F0D374DA94EBCB
:1010A000F0E5D0F0C3746894ECF0E5D0F0D3746848
:1010B00094ECF0E5D0F0C3742E94EDF0E5D0F0D3CD
:1010C000742E94EDF0E5D0F0C3747294EEF0E5D098
:1010D000F0D3747294EEF0E5D0F0C3744994EFF05D
:1010E000E5D0F0D3744994EFF0E5D0F0C374C79421
:1010F000F0F0E5D0F0D374C794F0F0E5D0F0C3740D
:101100002694F1F0E5D0F0D3742694F1F0E5D0F018
:10111000C3742494F2F0E5D0F0D3742494F2F0E593
:10112000D0F0C3749C94F3F0E5D0F0D3749C94F3A6
:10113000F0E5D0F0C374C294F4F0E5D0F0D374C2FB
:1011400094F4F0E5D0F0C3742B94F5F0E5D0F0D32F
:10115000742B94F5F0E5D0F0C3744594F6F0E5D027
:10116000F0D3744594F6F0E5D0F0C3743094F7F002
:10117000E5D0F0D3743094F7F0E5D0F0C374DA948E
:10118000F8F0E5D0F0D374DA94F8F0E5D0F0C37459
:101190001994F9F0E5D0F0D3741994F9F0E5D0F092
:1011A000C3740994FAF0E5D0F0D3740994FAF0E529
:1011B000D0F0C3748B94FBF0E5D0F0D3748B94FB28
:1011C000F0E5D0F0C3742D94FCF0E5D0F0D3742D8D
:1011D00094FCF0E5D0F0C374C994FDF0E5D0F0D3F1
:1011E00074C994FDF0E5D0F0C3747B94FEF0E5D0B3
:1011F000F0D3747B94FEF0E5D0F0C374B294FFF0AA
:0E120000E5D0F0D374B294FFF0E5D0F080FE9C
:00000001FF
