:1000000075820075830075D000E5D0F0858200759B
:1000100000C3850000E500F0E5D0F005828582018F
:10002000751A42851A01E501F0E5D0F00582858256
:1000300002752617852602E502F0E5D0F0058285D7
:100040008203750C04850C03E503F0E5D0F005820E
:100050008582047565B4856504E504F0E5D0F00596
:1000600082858205754CA4854C05E505F0E5D0F048
:100070000582858206751463851406E506F0E5D0D1
:10008000F00582858207755472855407E507F0E50F
:10009000D0F005828582087564BE856408E508F0A5
:1000A000E5D0F00582858209753DC0853D09E509E9
:1000B000F0E5D0F0058285820A75027085020AE5B6
:1000C0000AF0E5D0F0058285820B7540B985400BBA
:1000D000E50BF0E5D0F0058285820C755A83855AD0
:1000E0000CE50CF0E5D0F0058285820D7548E985B8
:1000F000480DE50DF0E5D0F0058285820E7563A40C
:1001000085630EE50EF0E5D0F0058285820F750B54
:100110007D850B0FE50FF0E5D0F005828582107527
:1001200038EA853810E510F0E5D0F00582858211B7
:100130007520AE852011E511F0E5D0F005828582AD
:1001400012755B22855B12E512F0E5D0F005828521
:100150008213756B8C856B13E513F0E5D0F0058287
:10016000858214754419854414E514F0E5D0F00532
:1001700082858215751D24851D15E515F0E5D0F0E5
:100180000582858216753E22853E16E516F0E5D07D
:10019000F00582858217751287851217E517F0E53D
:1001A000D0F0058285821875129B851218E518F02B
:1001B000E5D0F00582858219755110855119E51930
:1001C000F0E5D0F0058285821A750BC5850B1AE51E
:1001D0001AF0E5D0F0058285821B7546B785461B6F
:1001E000E51BF0E5D0F0058285821C752CC2852CBC
:1001F0001CE51CF0E5D0F0058285821D75010285A5
:10020000011DE51DF0E5D0F0058285821E75438352
:1002100085431EE51EF0E5D0F0058285821F752C12
:1002200044852C1FE51FF0E5D0F0058285822075FE
:100230004AD4854A20E520F0E5D0F0058285822168
:100240007534BB853421E521F0E5D0F00582858247
:1002500022753A68853A22E522F0E5D0F0058285DC
:100260008223754DA1854D23E523F0E5D0F005826D
:10027000858224753610853624E524F0E5D0F00516
:1002800082858225753A1D853A25E525F0E5D0F071
:100290000582858226755AD4855A26E526F0E5D052
:1002A000F00582858227754B79854B27E527F0E598
:1002B000D0F005828582287513E5851328E528F09E
:1002C000E5D0F00582858229750E40850E29E52945
:1002D000F0E5D0F0058285822A750D8A850D2AE524
:1002E0002AF0E5D0F0058285822B750A04850A2B59
:1002F000E52BF0E5D0F0058285822C75684685688F
:100300002CE52CF0E5D0F0058285822D75655785AA
:10031000652DE52DF0E5D0F0058285822E750CB2B5
:10032000850C2EE52EF0E5D0F0058285822F7567CD
:100330001D85672FE52FF0E5D0F0058285823075A9
:1003400023C8852330E530F0E5D0F0058285823181
:100350007509D8850931E531F0E5D0F0058285824F
:1003600032752632852632E532F0E5D0F0058285F9
:100370008233754E9A854E33E533F0E5D0F0058231
:100380008582347531B2853134E534F0E5D0F0053D
:1003900082858235751DA6851D35E535F0E5D0F0E1
:1003A0000582858236756202856236E536F0E5D0D3
:1003B000F00582858237750555850537E537F0E507
:1003C000D0F00582858238750676850638E538F0E6
:1003D000E5D0F00582858239754C83854C39E53945
:1003E000F0E5D0F0058285823A7528D985283AE56E
:1003F0003AF0E5D0F0058285823B751A8D851A3B6F
:10040000E53BF0E5D0F0058285823C75259B85258E
:100410003CE53CF0E5D0F0058285823D7533AC8546
:10042000333DE53DF0E5D0F0058285823E755D2BDC
:10043000855D3EE53EF0E5D0F0058285823F75148E
:10044000A685143FE53FF0E5D0F005828582407532
:100450006203856240E540F0E5D0F0058285824187
:100460007564CB856441E541F0E5D0F00582858275
:100470004275645C856442E542F0E5D0F005828512
:100480008243750307850343E543F0E5D0F0058219
:1004900085824475202A852044E544F0E5D0F005A6
:1004A00082858245752583852545E545F0E5D0F0B3
:1004B000058285824675141A851446E546F0E5D016
:1004C000F00582858247752B98852B47E547F0E537
:1004D000D0F0058285824875603D856048E548F02A
:1004E000E5D0F00582858249754022854049E5497D
:1004F000F0E5D0F0058285824A75262085264AE5FA
:100500004AF0E5D0F0058285824B753B83853B4BF5
:10051000E54BF0E5D0F0058285824C756071856011
:100520004CE54CF0E5D0F0058285824D75293C857F
:10053000294DE54DF0E5D0F0058285824E75360EE9
:1005400085364EE54EF0E5D0F0058285824F751078
:100550000185104FE54FF0E5D0F00582858250759A
:100560005E13855E50E550F0E5D0F005828582513E
:10057000755E70855E51E551F0E5D0F005828582AB
:1005800052754CD7854C52E552F0E5D0F005828586
:100590008253754EBA854E53E553F0E5D0F005828F
:1005A000858254756EAB856E54E554F0E5D0F00548
:1005B00082858255750541850555E555F0E5D0F0F4
:1005C00005828582567553CD855356E556F0E5D0A4
:1005D000F00582858257750DD7850D57E557F0E5F3
:1005E000D0F0058285825875456B854558E558F0F1
:1005F000E5D0F00582858259754597854559E559BD
:10060000F0E5D0F0058285825A7561E085615AE592
:100610005AF0E5D0F0058285825B75457985455BAA
:10062000E55BF0E5D0F0058285825C7559E7855978
:100630005CE55CF0E5D0F0058285825D753E328533
:100640003E5DE55DF0E5D0F0058285825E753AB0ED
:10065000853A5EE55EF0E5D0F0058285825F754CF7
:1006600062854C5FE55FF0E5D0F0058285826075BC
:1006700041EB854160E560F0E5D0F005828582615F
:10068000756603856661E561F0E5D0F005828582D7
:1006900062754D07854D62E562F0E5D0F005828513
:1006A0008263756DCA856D63E563F0E5D0F0058200
:1006B000858264756329856364E564F0E5D0F0059F
:1006C0008285826575520C855265E565F0E5D0F04E
:1006D0000582858266753762853766E566F0E5D006
:1006E000F00582858267755D18855D67E567F0E5D1
:1006F000D0F00582858268755376855368E568F089
:10070000E5D0F00582858269753AB4853A69E56974
:10071000F0E5D0F0058285826A75094085096AE5B1
:100720006AF0E5D0F0058285826B75331985336BED
:10073000E56BF0E5D0F0058285826C7555478555EF
:100740006CE56CF0E5D0F0058285826D756A618597
:100750006A6DE56DF0E5D0F0058285826E75530512
:1007600085536EE56EF0E5D0F0058285826F756C7D
:1007700063856C6FE56FF0E5D0F00582858270755A
:100780002596852570E570F0E5D0F00582858271AB
:10079000754BC6854B71E571F0E5D0F00582858219
:1007A00072753943853972E572F0E5D0F0058285BE
:1007B0008273752A92852A73E573F0E5D0F005827D
:1007C00085827475604D856074E574F0E5D0F00540
:1007D000828582757537DA853775E575F0E5D0F075
:1007E000058285827675282E852876E576F0E5D017
:1007F000F00582858277753249853277E577F0E5B5
:10080000D0F00582858278755726855778E578F08F
:10081000E5D0F0058285827975149C851479E57997
:10082000F0E5D0F0058285827A75522B85527AE503
:100830007AF0E5D0F0058285827B75153085157BD1
:10084000E57BF0E5D0F0058285827C756A19856AC2
:100850007CE57CF0E5D0F0058285827D75098B858D
:10086000097DE57DF0E5D0F0058285827E751DC9A4
:10087000851D7EE57EF0E5D0F0058285827F753BA3
:10088000B2853B7FE57FF0E5D0F0058285828C75EF
:100890003D5D853D8CE58CF0E5D0F0058285828D4F
:1008A0007541A485418DE58DF0E5D0F00582858206
:1008B0008A75285585288AE58AF0E5D0F005828575
:1008C000828B755EDA855E8BE58BF0E5D0F0058274
:1008D000858281752451852481E581F0E5D0F0057C
:1008E000828582897521D3852189E589F0E5D0F05B
:1008F0000582858288753377853388E588F0E5D071
:10090000F00582858298756726856798E598F0E5F9
:10091000D0F005828582F0752B85852BF0E5F0F00F
:10092000E5D0F005828582E07547DA8547E0E5E0AD
:10093000F0E5D0F005828582D0750ED3850ED0E526
:10094000D0F0E5D0F00582858282751C7E851C8200
:10095000E582F0E5D0F00582858283750E16850E5E
:1009600083E583F0E5D0F0058285828C756C5A852D
:100970008C6CE56CF0E5D0F0058285828D751C5994
:10098000858D1CE51CF0E5D0F0058285828A7521F5
:1009900025858A21E521F0E5D0F0058285828B75D9
:1009A00011E0858B11E511F0E5D0F005828582819B
:1009B000751C0985811CE51CF0E5D0F00582858257
:1009C0008975271A858927E527F0E5D0F005828506
:1009D0008288756471858864E564F0E5D0F00582ED
:1009E000858298755CE485985CE55CF0E5D0F0055F
:1009F000828582F0751A6785F01AE51AF0E5D0F065
:100A000005828582E0753E5685E03EE53EF0E5D004
:100A1000F005828582D075475885D047E547F0E5D7
:100A2000D0F00582858282752724858227E527F00C
:100A3000E5D0F00582858283750256858302E50242
:100A4000F0E5D0F0058285828C758CE8858C8CE58C
:100A50008CF0E5D0F0058285828C758DC8858D8CF3
:100A6000E58CF0E5D0F0058285828C758AC8858A90
:100A70008CE58CF0E5D0F0058285828C758BD38572
:100A80008B8CE58CF0E5D0F0058285828C75817CBD
:100A900085818CE58CF0E5D0F0058285828C7589A6
:100AA000EA85898CE58CF0E5D0F0058285828C752D
:100AB00088D385888CE58CF0E5D0F0058285828C22
:100AC0007598C985988CE58CF0E5D0F00582858213
:100AD0008C75F03785F08CE58CF0E5D0F0058285DB
:100AE000828C75E08985E08CE58CF0E5D0F005829C
:100AF00085828C75D0BA85D08CE58CF0E5D0F00578
:100B00008285828C75826A85828CE58CF0E5D0F0D6
:100B1000058285828C75837A85838CE58CF0E5D09F
:100B2000F0058285828D758C9C858C8DE58DF0E538
:100B3000D0F0058285828D758DE0858D8DE58DF0F7
:100B4000E5D0F0058285828D758A39858A8DE58D9F
:100B5000F0E5D0F0058285828D758B01858B8DE562
:100B60008DF0E5D0F0058285828D75813E85818D81
:100B7000E58DF0E5D0F0058285828D7589B5858992
:100B80008DE58DF0E5D0F0058285828D75889B8599
:100B9000888DE58DF0E5D0F0058285828D7598BE53
:100BA00085988DE58DF0E5D0F0058285828D75F014
:100BB0002E85F08DE58DF0E5D0F0058285828D756E
:100BC000E02685E08DE58DF0E5D0F0058285828D0B
:100BD00075D05485D08DE58DF0E5D0F00582858205
:100BE0008D75824C85828DE58DF0E5D0F00582858E
:100BF000828D75838085838DE58DF0E5D0F005824B
:100C000085828A758C1B858C8AE58AF0E5D0F00593
:100C10008285828A758DA7858D8AE58AF0E5D0F078
:100C2000058285828A758A01858A8AE58AF0E5D0FF
:100C3000F0058285828A758BC9858B8AE58AF0E505
:100C4000D0F0058285828A75817685818AE58AF071
:100C5000E5D0F0058285828A7589A685898AE58A2C
:100C6000F0E5D0F0058285828A75885185888AE50D
:100C70008AF0E5D0F0058285828A7598C085988AC9
:100C8000E58AF0E5D0F0058285828A75F0C585F0A9
:100C90008AE58AF0E5D0F0058285828A75E0D18503
:100CA000E08AE58AF0E5D0F0058285828A75D0BBBE
:100CB00085D08AE58AF0E5D0F0058285828A758242
:100CC0002D85828AE58AF0E5D0F0058285828A75D5
:100CD00083D985838AE58AF0E5D0F0058285828B09
:100CE000758C60858C8BE58BF0E5D0F00582858274
:100CF0008B758D21858D8BE58BF0E5D0F005828598
:100D0000828B758A68858A8BE58BF0E5D0F0058249
:100D100085828B758B61858B8BE58BF0E5D0F0053B
:100D20008285828B75813C85818BE58BF0E5D0F0E7
:100D3000058285828B7589E685898BE58BF0E5D008
:100D4000F0058285828B75881885888BE58BF0E5A8
:100D5000D0F0058285828B75989B85988BE58BF00A
:100D6000E5D0F0058285828B75F0D485F08BE58B1C
:100D7000F0E5D0F0058285828B75E05085E08BE54B
:100D80008BF0E5D0F0058285828B75D02185D08BE4
:100D9000E58BF0E5D0F0058285828B758223858214
:100DA0008BE58BF0E5D0F0058285828B75836285BB
:100DB000838BE58BF0E5D0F00582858281758C45CB
:100DC000858C81E581F0E5D0F00582858281758D85
:100DD000C2858D81E581F0E5D0F00582858281753F
:100DE0008AA2858A81E581F0E5D0F005828582813D
:100DF000758BD6858B81E581F0E5D0F00582858203
:100E00008175810C858181E581F0E5D0F0058285D1
:100E10008281758927858981E581F0E5D0F0058299
:100E2000858281758888858881E581F0E5D0F00527
:100E30008285828175982A859881E581F0E5D0F0D8
:100E4000058285828175F0DD85F081E581F0E5D050
:100E5000F0058285828175E0DA85E081E581F0E543
:100E6000D0F0058285828175D06685D081E581F0DC
:100E7000E5D0F0058285828175826D858281E5816C
:100E8000F0E5D0F005828582817583D8858381E580
:100E900081F0E5D0F00582858289758CD8858C89B2
:100EA000E589F0E5D0F00582858289758D11858D03
:100EB00089E589F0E5D0F00582858289758AE48527
:100EC0008A89E589F0E5D0F00582858289758B7085
:100ED000858B89E589F0E5D0F00582858289758169
:100EE0002D858189E589F0E5D0F0058285828975B7
:100EF0008929858989E589F0E5D0F005828582898F
:100F00007588E3858889E589F0E5D0F005828582DA
:100F10008975982E859889E589F0E5D0F005828558
:100F2000828975F02785F089E589F0E5D0F00582A2
:100F300085828975E07485E089E589F0E5D0F00562
:100F40008285828975D01A85D089E589F0E5D0F04F
:100F5000058285828975825D858289E589F0E5D083
:100F6000F005828582897583B1858389E589F0E5FD
:100F7000D0F00582858288758C41858C88E588F063
:100F8000E5D0F00582858288758D13858D88E5888A
:100F9000F0E5D0F00582858288758ACB858A88E560
:100FA00088F0E5D0F00582858288758B04858B8872
:100FB000E588F0E5D0F005828582887581618581BC
:100FC00088E588F0E5D0F0058285828875899E8560
:100FD0008988E588F0E5D0F0058285828875888566
:100FE000858888E588F0E5D0F00582858288759847
:100FF00054859888E588F0E5D0F00582858288756B
:10100000F04B85F088E588F0E5D0F0058285828890
:1010100075E00A85E088E588F0E5D0F005828582F4
:101020008875D04885D088E588F0E5D0F0058285C0
:1010300082887582D6858288E588F0E5D0F00582C1
:1010400085828875838A858388E588F0E5D0F005F8
:1010500082858298758C94858C98E598F0E5D0F01F
:101060000582858298758D61858D98E598F0E5D02B
:10107000F00582858298758AA3858A98E598F0E5BF
:10108000D0F00582858298758BBC858B98E598F0A9
:10109000E5D0F005828582987581D8858198E5989C
:1010A000F0E5D0F0058285829875898C858998E570
:1010B00098F0E5D0F00582858298758892858898A9
:1010C000E598F0E5D0F005828582987598DC8598E2
:1010D00098E598F0E5D0F0058285829875F0C08596
:1010E000F098E598F0E5D0F0058285829875E01ECD
:1010F00085E098E598F0E5D0F0058285829875D076
:101100000085D098E598F0E5D0F005828582987545
:10111000824B858298E598F0E5D0F005828582982B
:101120007583BE858398E598F0E5D0F005828582C9
:10113000F0758C3E858CF0E5F0F0E5D0F005828509
:1011400082F0758D45858DF0E5F0F0E5D0F00582F3
:101150008582F0758A46858AF0E5F0F0E5D0F005E5
:10116000828582F0758BD8858BF0E5F0F0E5D0F0C4
:1011700005828582F07581378581F0E5F0F0E5D054
:10118000F005828582F07589BB8589F0E5F0F0E590
:10119000D0F005828582F07588A98588F0E5F0F0A9
:1011A000E5D0F005828582F07598338598F0E5F0FA
:1011B000F0E5D0F005828582F075F06385F0F0E50A
:1011C000F0F0E5D0F005828582F075E03785E0F03B
:1011D000E5F0F0E5D0F005828582F075D0BE85D0CF
:1011E000F0E5F0F0E5D0F005828582F07582268585
:1011F00082F0E5F0F0E5D0F005828582F07583E0BD
:101200008583F0E5F0F0E5D0F005828582E0758C0D
:10121000CD858CE0E5E0F0E5D0F005828582E075D3
:101220008D9C858DE0E5E0F0E5D0F005828582E0DB
:10123000758A0B858AE0E5E0F0E5D0F005828582CD
:10124000E0758B0B858BE0E5E0F0E5D0F00582855D
:1012500082E075815A8581E0E5E0F0E5D0F0058215
:101260008582E07589548589E0E5E0F0E5D0F005F8
:10127000828582E07588E78588E0E5E0F0E5D0F0DA
:1012800005828582E07598118598E0E5E0F0E5D06B
:10129000F005828582E075F05985F0E0E5E0F0E543
:1012A000D0F005828582E075E02285E0E0E5E0F09F
:1012B000E5D0F005828582E075D08085D0E0E5E05C
:1012C000F0E5D0F005828582E07582498582E0E50F
:1012D000E0F0E5D0F005828582E075838B8583E0C0
:1012E000E5E0F0E5D0F005828582D0758C58858CDC
:1012F000D0E5D0F0E5D0F005828582D0758D678588
:101300008DD0E5D0F0E5D0F005828582D0758A1CBD
:10131000858AD0E5D0F0E5D0F005828582D0758B46
:10132000CD858BD0E5D0F0E5D0F005828582D075F3
:1013300081198581D0E5D0F0E5D0F005828582D095
:1013400075891C8589D0E5D0F0E5D0F005828582CD
:10135000D075882C8588D0E5D0F0E5D0F005828561
:1013600082D07598608598D0E5D0F0E5D0F0058200
:101370008582D075F0D785F0D0E5D0F0E5D0F005C6
:10138000828582D075E06885E0D0E5D0F0E5D0F0C8
:1013900005828582D075D0D685D0D0E5D0F0E5D055
:1013A000F005828582D07582108582D0E5D0F0E587
:1013B000D0F005828582D075837D8583D0E5D0F01D
:1013C000E5D0F00582858282758CAE858C82E582BF
:1013D000F0E5D0F00582858282758D11858D82E5DC
:1013E00082F0E5D0F00582858282758A8A858A82BC
:1013F000E582F0E5D0F00582858282758B5D858B74
:1014000082E582F0E5D0F005828582827581BA8519
:101410008182E582F0E5D0F005828582827589DDE2
:10142000858982E582F0E5D0F00582858282758823
:1014300034858882E582F0E5D0F005828582827568
:10144000987D859882E582F0E5D0F00582858282DC
:1014500075F04485F082E582F0E5D0F00582858262
:101460008275E03385E082E582F0E5D0F005828583
:10147000828275D00485D082E582F0E5D0F00582C5
:10148000858282758225858282E582F0E5D0F0052D
:10149000828582827583E5858382E582F0E5D0F0DE
:1014A0000582858283758C51858C83E583F0E5D038
:1014B000F00582858283758DC5858D83E583F0E592
:1014C000D0F00582858283758A4E858A83E583F014
:1014D000E5D0F00582858283758B91858B83E583CA
:1014E000F0E5D0F0058285828375811C858183E5D6
:1014F00083F0E5D0F00582858283758953858983E1
:10150000E583F0E5D0F005828582837588A785881C
:1015100083E583F0E5D0F0058285828375987D852B
:101520009883E583F0E5D0F0058285828375F0EE3F
:1015300085F083E583F0E5D0F0058285828375E050
:10154000AA85E083E583F0E5D0F005828582837586
:10155000D02B85D083E583F0E5D0F00582858283AA
:10156000758248858283E583F0E5D0F00582858227
:1015700083758305858383E583F0E5D0F00582805C
:01158000FE6C
:00000001FF
