:1000000075820075830075D000787FE5D0F0A682F8
:100010008601E501F0E5D0F005820582058218A68B
:10002000828602E502F0E5D0F0058205820582189D
:10003000A6828603E503F0E5D0F0058205820582FD
:1000400018A6828604E504F0E5D0F0058205820555
:100050008218A6828605E505F0E5D0F005820582C6
:10006000058218A6828606E506F0E5D0F005820531
:1000700082058218A6828607E507F0E5D0F00582A2
:100080000582058218A6828608E508F0E5D0F0050D
:10009000820582058218A6828609E509F0E5D0F07E
:1000A00005820582058218A682860AE50AF0E5D057
:1000B000F005820582058218A682860BE50BF0E525
:1000C000D0F005820582058218A682860CE50CF028
:1000D000E5D0F005820582058218A682860DE50D21
:1000E000F0E5D0F005820582058218A682860EE52D
:1000F0000EF0E5D0F005820582058218A682860FF3
:10010000E50FF0E5D0F005820582058218A682860B
:1001100010E510F0E5D0F005820582058218A68270
:100120008611E511F0E5D0F005820582058218A65A
:10013000828612E512F0E5D0F0058205820582186C
:10014000A6828613E513F0E5D0F0058205820582CC
:1001500018A6828614E514F0E5D0F0058205820524
:100160008218A6828615E515F0E5D0F00582058295
:10017000058218A6828616E516F0E5D0F005820500
:1001800082058218A6828617E517F0E5D0F0058271
:100190000582058218A6828618E518F0E5D0F005DC
:1001A000820582058218A6828619E519F0E5D0F04D
:1001B00005820582058218A682861AE51AF0E5D026
:1001C000F005820582058218A682861BE51BF0E5F4
:1001D000D0F005820582058218A682861CE51CF0F7
:1001E000E5D0F005820582058218A682861DE51DF0
:1001F000F0E5D0F005820582058218A682861EE50C
:100200001EF0E5D0F005820582058218A682861FC1
:10021000E51FF0E5D0F005820582058218A68286EA
:1002200020E520F0E5D0F005820582058218A6823F
:100230008621E521F0E5D0F005820582058218A629
:10024000828622E522F0E5D0F0058205820582183B
:10025000A6828623E523F0E5D0F00582058205829B
:1002600018A6828624E524F0E5D0F00582058205F3
:100270008218A6828625E525F0E5D0F00582058264
:10028000058218A6828626E526F0E5D0F0058205CF
:1002900082058218A6828627E527F0E5D0F0058240
:1002A0000582058218A6828628E528F0E5D0F005AB
:1002B000820582058218A6828629E529F0E5D0F01C
:1002C00005820582058218A682862AE52AF0E5D0F5
:1002D000F005820582058218A682862BE52BF0E5C3
:1002E000D0F005820582058218A682862CE52CF0C6
:1002F000E5D0F005820582058218A682862DE52DBF
:10030000F0E5D0F005820582058218A682862EE5EA
:100310002EF0E5D0F005820582058218A682862F90
:10032000E52FF0E5D0F005820582058218A68286C9
:1003300030E530F0E5D0F005820582058218A6820E
:100340008631E531F0E5D0F005820582058218A6F8
:10035000828632E532F0E5D0F0058205820582180A
:10036000A6828633E533F0E5D0F00582058205826A
:1003700018A6828634E534F0E5D0F00582058205C2
:100380008218A6828635E535F0E5D0F00582058233
:10039000058218A6828636E536F0E5D0F00582059E
:1003A00082058218A6828637E537F0E5D0F005820F
:1003B0000582058218A6828638E538F0E5D0F0057A
:1003C000820582058218A6828639E539F0E5D0F0EB
:1003D00005820582058218A682863AE53AF0E5D0C4
:1003E000F005820582058218A682863BE53BF0E592
:1003F000D0F005820582058218A682863CE53CF095
:10040000E5D0F005820582058218A682863DE53D8D
:10041000F0E5D0F005820582058218A682863EE5C9
:100420003EF0E5D0F005820582058218A682863F5F
:10043000E53FF0E5D0F005820582058218A68286A8
:1004400040E540F0E5D0F005820582058218A682DD
:100450008641E541F0E5D0F005820582058218A6C7
:10046000828642E542F0E5D0F005820582058218D9
:10047000A6828643E543F0E5D0F005820582058239
:1004800018A6828644E544F0E5D0F0058205820591
:100490008218A6828645E545F0E5D0F00582058202
:1004A000058218A6828646E546F0E5D0F00582056D
:1004B00082058218A6828647E547F0E5D0F00582DE
:1004C0000582058218A6828648E548F0E5D0F00549
:1004D000820582058218A6828649E549F0E5D0F0BA
:1004E00005820582058218A682864AE54AF0E5D093
:1004F000F005820582058218A682864BE54BF0E561
:10050000D0F005820582058218A682864CE54CF063
:10051000E5D0F005820582058218A682864DE54D5C
:10052000F0E5D0F005820582058218A682864EE5A8
:100530004EF0E5D0F005820582058218A682864F2E
:10054000E54FF0E5D0F005820582058218A6828687
:1005500050E550F0E5D0F005820582058218A682AC
:100560008651E551F0E5D0F005820582058218A696
:10057000828652E552F0E5D0F005820582058218A8
:10058000A6828653E553F0E5D0F005820582058208
:1005900018A6828654E554F0E5D0F0058205820560
:1005A0008218A6828655E555F0E5D0F005820582D1
:1005B000058218A6828656E556F0E5D0F00582053C
:1005C00082058218A6828657E557F0E5D0F00582AD
:1005D0000582058218A6828658E558F0E5D0F00518
:1005E000820582058218A6828659E559F0E5D0F089
:1005F00005820582058218A682865AE55AF0E5D062
:10060000F005820582058218A682865BE55BF0E52F
:10061000D0F005820582058218A682865CE55CF032
:10062000E5D0F005820582058218A682865DE55D2B
:10063000F0E5D0F005820582058218A682865EE587
:100640005EF0E5D0F005820582058218A682865FFD
:10065000E55FF0E5D0F005820582058218A6828666
:1006600060E560F0E5D0F005820582058218A6827B
:100670008661E561F0E5D0F005820582058218A665
:10068000828662E562F0E5D0F00582058205821877
:10069000A6828663E563F0E5D0F0058205820582D7
:1006A00018A6828664E564F0E5D0F005820582052F
:1006B0008218A6828665E565F0E5D0F005820582A0
:1006C000058218A6828666E566F0E5D0F00582050B
:1006D00082058218A6828667E567F0E5D0F005827C
:1006E0000582058218A6828668E568F0E5D0F005E7
:1006F000820582058218A6828669E569F0E5D0F058
:1007000005820582058218A682866AE56AF0E5D030
:10071000F005820582058218A682866BE56BF0E5FE
:10072000D0F005820582058218A682866CE56CF001
:10073000E5D0F005820582058218A682866DE56DFA
:10074000F0E5D0F005820582058218A682866EE566
:100750006EF0E5D0F005820582058218A682866FCC
:10076000E56FF0E5D0F005820582058218A6828645
:1007700070E570F0E5D0F005820582058218A6824A
:100780008671E571F0E5D0F005820582058218A634
:10079000828672E572F0E5D0F00582058205821846
:1007A000A6828673E573F0E5D0F0058205820582A6
:1007B00018A6828674E574F0E5D0F00582058205FE
:1007C0008218A6828675E575F0E5D0F0058205826F
:1007D000058218A6828676E576F0E5D0F0058205DA
:1007E00082058218A6828677E577F0E5D0F005824B
:1007F0000582058218A6828678E578F0E5D0F005B6
:10080000820582058218A6828679E579F0E5D0F026
:1008100005820582058218A682867AE57AF0E5D0FF
:10082000F005820582058218A682867BE57BF0E5CD
:10083000D0F005820582058218A682867CE57CF0D0
:10084000E5D0F005820582058218A682867DE57DC9
:10085000F0E5D0F005820582058218A682867EE545
:100860007EF0E5D0F005820582058218A682867F9B
:10087000E57FF0E5D0F0058205820582187801A6B3
:1008800082868CE58CF0E5D0F00582058205820831
:10089000A682868DE58DF0E5D0F005820582058281
:1008A00008A682868AE58AF0E5D0F00582058205F1
:1008B0008208A682868BE58BF0E5D0F00582058262
:1008C000058208A6828681E581F0E5D0F0058205E3
:1008D00082058208A6828689E589F0E5D0F0058246
:1008E0000582058208A6828688E588F0E5D0F005B5
:1008F000820582058208A6828698E598F0E5D0F008
:1009000005820582058208A68286F0E5F0F0E5D032
:10091000F005820582058208A68286E0E5E0F0E522
:10092000D0F005820582058208A6828682E582F0E3
:10093000E5D0F005820582058208A6828683E583DC
:10094000F0E5D0F005820582058208A682868CE556
:100950008CF0E5D0F005820582058208A682868D9E
:10096000E58DF0E5D0F005820582058208A6828635
:100970008AE58AF0E5D0F005820582058208A68224
:10098000868BE58BF0E5D0F005820582058208A60E
:10099000828681E581F0E5D0F00582058205820836
:1009A000A6828689E589F0E5D0F005820582058278
:1009B00008A6828688E588F0E5D0F00582058205E4
:1009C0008208A6828698E598F0E5D0F00582058237
:1009D000058208A68286F0E5F0F0E5D0F0058205F4
:1009E00082058208A68286E0E5E0F0E5D0F0058287
:1009F0000582058208A6828682E582F0E5D0F005B0
:100A0000820582058208A6828683E583F0E5D0F020
:100A100005820582058208A682868CE58CF0E5D0E9
:100A2000F005820582058208A682868DE58DF0E5B7
:100A3000D0F005820582058208A682868AE58AF0C2
:100A4000E5D0F005820582058208A682868BE58BBB
:100A5000F0E5D0F005820582058208A6828681E550
:100A600081F0E5D0F005820582058208A68286899C
:100A7000E589F0E5D0F005820582058208A6828628
:100A800088E588F0E5D0F005820582058208A68217
:100A90008698E598F0E5D0F005820582058208A6E3
:100AA0008286F0E5F0F0E5D0F00582058205820847
:100AB000A68286E0E5E0F0E5D0F0058205820582B9
:100AC00008A6828682E582F0E5D0F00582058205DF
:100AD0008208A6828683E583F0E5D0F00582058250
:100AE000058208A682868CE58CF0E5D0F0058205AB
:100AF00082058208A682868DE58DF0E5D0F005821C
:100B00000582058208A682868AE58AF0E5D0F0058E
:100B1000820582058208A682868BE58BF0E5D0F0FF
:100B200005820582058208A6828681E581F0E5D0EE
:100B3000F005820582058208A6828689E589F0E5AE
:100B4000D0F005820582058208A6828688E588F0B5
:100B5000E5D0F005820582058208A6828698E59890
:100B6000F0E5D0F005820582058208A68286F0E5D0
:100B7000F0F0E5D0F005820582058208A68286E0C5
:100B8000E5E0F0E5D0F005820582058208A68286C0
:100B900082E582F0E5D0F005820582058208A68212
:100BA0008683E583F0E5D0F0058205820582088022
:010BB000FE46
:00000001FF
