:0F00000075820075830075D000E5D0F002007F97
:08006400A200E5D0F002008FBC
:10007F00C2007582003000DDD2007582C33000D51A
:03008F000209F76C
:0809E800A20DE5D0F0020A07A0
:1009F700C20D75824A300DE9D20D758242300DE184
:030A070002115485
:10115400C213758256301316D21375821730130ECC
:0B117200A213E5D0F002117A0217F87A
:0817B400A21FE5D0F0021808A5
:1017F800C21F75821C301FB4D21F758204301FAC03
:03180800021EA518
:101EA500C2277582D5302726D2277582B430271EE2
:0B1ED300A227E5D0F0021EDB0226F97A
:0826AB00A22EE5D0F002270980
:1026F900C22E7582AC302EAAD22E7582A4302EA29B
:0327090002336236
:10336200C23475822430340DD23475826330340510
:0B337700A234E5D0F002337F023AF6EA
:083A8600A235E5D0F0023B0679
:103AF600C2357582C4303588D235758272303580CC
:033B060002427FF9
:08426400A242E5D0F002428FF6
:10427F00C2427582D43042DDD2427582BE3042D501
:03428F000245F7EE
:0845E800A248E5D0F0024607ED
:1045F700C24875827D3048E9D2487582C03048E1AB
:0346070002555405
:10555400C252758222305216D25275827030520E67
:0B557200A252E5D0F002557A025DF86D
:085DB400A263E5D0F0025E08D5
:105DF800C2637582803063B4D2637582B93063AC94
:035E08000260A590
:1060A500C2727582BA307226D27275828330721EC0
:0B60D300A272E5D0F00260DB0267F96A
:0867AB00A27FE5D0F0026809AD
:1067F900C27F7582A8307FAAD27F7582E9307FA2D5
:03680900026B62BD
:106B6200C28A7582E3308A0DD28A7582A4308A0580
:0B6B7700A28AE5D0F0026B7F0276F6E8
:08768600A28DE5D0F0027706A9
:1076F600C28D75821B308D88D28D75827D308D80CE
:0377060002817F7E
:08816400A29EE5D0F002818F1C
:10817F00C29E758278309EDDD29E7582EA309ED582
:03818F00028AF76A
:088AE800A29BE5D0F0028B0710
:108AF700C29B758250309BE9D29B7582AE309BE159
:038B070002945481
:10945400C2F27582BB30F216D2F275822230F20E5D
:0B947200A2F2E5D0F002947A0297F815
:0897B400A2F6E5D0F0029808CE
:1097F800C2F67582DB30F6B4D2F675828C30F6ACE0
:0398080002A5A511
:10A5A500C2E07582A430E026D2E075821930E01E43
:0BA5D300A2E0E5D0F002A5DB02ABF92E
:08ABAB00A2E1E5D0F002AC09C3
:10ABF900C2E175824D30E1AAD2E175822430E1A229
:03AC090002B26232
:10B26200C2E275828E30E20DD2E275822230E205B0
:0BB27700A2E2E5D0F002B27F02BFF6B9
:08BF8600A2E3E5D0F002C006C1
:10BFF600C2E375824230E388D2E375828730E380FC
:03C0060002C37FF3
:08C36400A2E4E5D0F002C38F52
:10C37F00C2E475824230E4DDD2E475829B30E4D5AD
:03C38F0002C8F7EA
:08C8E800A2E5E5D0F002C9074A
:10C8F700C2E57582B130E5E9D2E575821030E5E130
:03C9070002D15406
:10D15400C2E675821B30E616D2E67582C530E60E4D
:0BD17200A2E6E5D0F002D17A02DAF864
:08DAB400A2E7E5D0F002DB0857
:10DAF800C2E775829630E7B4D2E77582B730E7ACF3
:03DB080002E2A591
:10E2A500C2D775825C30D726D2D77582C230D71EC9
:0BE2D300A2D7E5D0F002E2DB02E5F983
:08E5AB00A2D6E5D0F002E6095A
:10E5F900C2D675821130D6AAD2D675820230D6A279
:03E6090002F462B6
:10F46200C2B87582A330B80DD2B875828330B805A0
:0BF47700A2B8E5D0F002F47F02FEF620
:08FE8600A2AAE5D0F002FF067C
:10FEF600C2AA75825C30AA88D2AA75824430AA80CA
:02FF060080FE7B
:00000001FF
