:1000000075820075830075D000E5D0F075205575B8
:100010002155752255752355752455752555752619
:1000200055752755752855752955752A55752B55BC
:10003000752C55752D55752E55752F55C3A000E59A
:10004000D0F0C3A001E5D0F0C3A002E5D0F0C3A07A
:1000500003E5D0F0C3A004E5D0F0C3A005E5D0F0DF
:10006000C3A006E5D0F0C3A007E5D0F0C3C3A00845
:10007000E5D0F0C3A009E5D0F0C3A00AE5D0F0C3F5
:10008000A00BE5D0F0C3A00CE5D0F0C3A00DE5D0E7
:10009000F0C3A00EE5D0F0C3A00FE5D0F0C3C3A01D
:1000A00010E5D0F0C3A011E5D0F0C3A012E5D0F068
:1000B000C3A013E5D0F0C3A014E5D0F0C3A015E5AC
:1000C000D0F0C3A016E5D0F0C3A017E5D0F0C3C3AD
:1000D000A018E5D0F0C3A019E5D0F0C3A01AE5D070
:1000E000F0C3A01BE5D0F0C3A01CE5D0F0C3A01D59
:1000F000E5D0F0C3A01EE5D0F0C3A01FE5D0F0C34B
:10010000C3A020E5D0F0C3A021E5D0F0C3A022E534
:10011000D0F0C3A023E5D0F0C3A024E5D0F0C3A065
:1001200025E5D0F0C3A026E5D0F0C3A027E5D0F0A8
:10013000C3C3A028E5D0F0C3A029E5D0F0C3A02A0E
:10014000E5D0F0C3A02BE5D0F0C3A02CE5D0F0C3E0
:10015000A02DE5D0F0C3A02EE5D0F0C3A02FE5D0B0
:10016000F0C3C3A030E5D0F0C3A031E5D0F0C3A008
:1001700032E5D0F0C3A033E5D0F0C3A034E5D0F031
:10018000C3A035E5D0F0C3A036E5D0F0C3A037E575
:10019000D0F0C3C3A038E5D0F0C3A039E5D0F0C398
:1001A000A03AE5D0F0C3A03BE5D0F0C3A03CE5D039
:1001B000F0C3A03DE5D0F0C3A03EE5D0F0C3A03F22
:1001C000E5D0F0C3C3A040E5D0F0C3A041E5D0F036
:1001D000C3A042E5D0F0C3A043E5D0F0C3A044E5FE
:1001E000D0F0C3A045E5D0F0C3A046E5D0F0C3A051
:1001F00047E5D0F0C3C3A048E5D0F0C3A049E5D09F
:10020000F0C3A04AE5D0F0C3A04BE5D0F0C3A04CAA
:10021000E5D0F0C3A04DE5D0F0C3A04EE5D0F0C3CB
:10022000A04FE5D0F0C3C3A050E5D0F0C3A051E586
:10023000D0F0C3A052E5D0F0C3A053E5D0F0C3A0E6
:1002400054E5D0F0C3A055E5D0F0C3A056E5D0F0FA
:10025000C3A057E5D0F0C3C3A058E5D0F0C3A05960
:10026000E5D0F0C3A05AE5D0F0C3A05BE5D0F0C361
:10027000A05CE5D0F0C3A05DE5D0F0C3A05EE5D002
:10028000F0C3A05FE5D0F0C3C3A060E5D0F0C3A089
:1002900061E5D0F0C3A062E5D0F0C3A063E5D0F083
:1002A000C3A064E5D0F0C3A065E5D0F0C3A066E5C7
:1002B000D0F0C3A067E5D0F0C3C3A068E5D0F0C319
:1002C000A069E5D0F0C3A06AE5D0F0C3A06BE5D08B
:1002D000F0C3A06CE5D0F0C3A06DE5D0F0C3A06E74
:1002E000E5D0F0C3A06FE5D0F0C3C3A070E5D0F0B7
:1002F000C3A071E5D0F0C3A072E5D0F0C3A073E550
:10030000D0F0C3A074E5D0F0C3A075E5D0F0C3A0D1
:1003100076E5D0F0C3A077E5D0F0C3C3A078E5D0F0
:10032000F0C3A079E5D0F0C3A07AE5D0F0C3A07BFC
:10033000E5D0F0C3A07CE5D0F0C3A07DE5D0F0C34C
:10034000A07EE5D0F0C3A07FE5D0F0C37520557541
:1003500021557522557523557524557525557526D6
:1003600055752755752855752955752A55752B5579
:10037000752C55752D55752E55752F55D3A000E547
:10038000D0F0D3A001E5D0F0D3A002E5D0F0D3A007
:1003900003E5D0F0D3A004E5D0F0D3A005E5D0F07C
:1003A000D3A006E5D0F0D3A007E5D0F0D3D3A008C2
:1003B000E5D0F0D3A009E5D0F0D3A00AE5D0F0D382
:1003C000A00BE5D0F0D3A00CE5D0F0D3A00DE5D084
:1003D000F0D3A00EE5D0F0D3A00FE5D0F0D3D3A09A
:1003E00010E5D0F0D3A011E5D0F0D3A012E5D0F005
:1003F000D3A013E5D0F0D3A014E5D0F0D3A015E539
:10040000D0F0D3A016E5D0F0D3A017E5D0F0D3D329
:10041000A018E5D0F0D3A019E5D0F0D3A01AE5D00C
:10042000F0D3A01BE5D0F0D3A01CE5D0F0D3A01DE5
:10043000E5D0F0D3A01EE5D0F0D3A01FE5D0F0D3D7
:10044000D3A020E5D0F0D3A021E5D0F0D3A022E5C1
:10045000D0F0D3A023E5D0F0D3A024E5D0F0D3A0F2
:1004600025E5D0F0D3A026E5D0F0D3A027E5D0F045
:10047000D3D3A028E5D0F0D3A029E5D0F0D3A02A8B
:10048000E5D0F0D3A02BE5D0F0D3A02CE5D0F0D36D
:10049000A02DE5D0F0D3A02EE5D0F0D3A02FE5D04D
:1004A000F0D3D3A030E5D0F0D3A031E5D0F0D3A085
:1004B00032E5D0F0D3A033E5D0F0D3A034E5D0F0CE
:1004C000D3A035E5D0F0D3A036E5D0F0D3A037E502
:1004D000D0F0D3D3A038E5D0F0D3A039E5D0F0D315
:1004E000A03AE5D0F0D3A03BE5D0F0D3A03CE5D0D6
:1004F000F0D3A03DE5D0F0D3A03EE5D0F0D3A03FAF
:10050000E5D0F0D3D3A040E5D0F0D3A041E5D0F0C2
:10051000D3A042E5D0F0D3A043E5D0F0D3A044E58A
:10052000D0F0D3A045E5D0F0D3A046E5D0F0D3A0DD
:1005300047E5D0F0D3D3A048E5D0F0D3A049E5D02B
:10054000F0D3A04AE5D0F0D3A04BE5D0F0D3A04C37
:10055000E5D0F0D3A04DE5D0F0D3A04EE5D0F0D358
:10056000A04FE5D0F0D3D3A050E5D0F0D3A051E513
:10057000D0F0D3A052E5D0F0D3A053E5D0F0D3A073
:1005800054E5D0F0D3A055E5D0F0D3A056E5D0F097
:10059000D3A057E5D0F0D3D3A058E5D0F0D3A059DD
:1005A000E5D0F0D3A05AE5D0F0D3A05BE5D0F0D3EE
:1005B000A05CE5D0F0D3A05DE5D0F0D3A05EE5D09F
:1005C000F0D3A05FE5D0F0D3D3A060E5D0F0D3A006
:1005D00061E5D0F0D3A062E5D0F0D3A063E5D0F020
:1005E000D3A064E5D0F0D3A065E5D0F0D3A066E554
:1005F000D0F0D3A067E5D0F0D3D3A068E5D0F0D396
:10060000A069E5D0F0D3A06AE5D0F0D3A06BE5D027
:10061000F0D3A06CE5D0F0D3A06DE5D0F0D3A06E00
:10062000E5D0F0D3A06FE5D0F0D3D3A070E5D0F043
:10063000D3A071E5D0F0D3A072E5D0F0D3A073E5DC
:10064000D0F0D3A074E5D0F0D3A075E5D0F0D3A05E
:1006500076E5D0F0D3A077E5D0F0D3D3A078E5D07D
:10066000F0D3A079E5D0F0D3A07AE5D0F0D3A07B89
:10067000E5D0F0D3A07CE5D0F0D3A07DE5D0F0D3D9
:10068000A07EE5D0F0D3A07FE5D0F0D37520AA7589
:1006900021AA7522AA7523AA7524AA7525AA7526EA
:1006A000AA7527AA7528AA7529AA752AAA752BAA38
:1006B000752CAA752DAA752EAA752FAAC3A000E5C0
:1006C000D0F0C3A001E5D0F0C3A002E5D0F0C3A0F4
:1006D00003E5D0F0C3A004E5D0F0C3A005E5D0F059
:1006E000C3A006E5D0F0C3A007E5D0F0C3C3A008BF
:1006F000E5D0F0C3A009E5D0F0C3A00AE5D0F0C36F
:10070000A00BE5D0F0C3A00CE5D0F0C3A00DE5D060
:10071000F0C3A00EE5D0F0C3A00FE5D0F0C3C3A096
:1007200010E5D0F0C3A011E5D0F0C3A012E5D0F0E1
:10073000C3A013E5D0F0C3A014E5D0F0C3A015E525
:10074000D0F0C3A016E5D0F0C3A017E5D0F0C3C326
:10075000A018E5D0F0C3A019E5D0F0C3A01AE5D0E9
:10076000F0C3A01BE5D0F0C3A01CE5D0F0C3A01DD2
:10077000E5D0F0C3A01EE5D0F0C3A01FE5D0F0C3C4
:10078000C3A020E5D0F0C3A021E5D0F0C3A022E5AE
:10079000D0F0C3A023E5D0F0C3A024E5D0F0C3A0DF
:1007A00025E5D0F0C3A026E5D0F0C3A027E5D0F022
:1007B000C3C3A028E5D0F0C3A029E5D0F0C3A02A88
:1007C000E5D0F0C3A02BE5D0F0C3A02CE5D0F0C35A
:1007D000A02DE5D0F0C3A02EE5D0F0C3A02FE5D02A
:1007E000F0C3C3A030E5D0F0C3A031E5D0F0C3A082
:1007F00032E5D0F0C3A033E5D0F0C3A034E5D0F0AB
:10080000C3A035E5D0F0C3A036E5D0F0C3A037E5EE
:10081000D0F0C3C3A038E5D0F0C3A039E5D0F0C311
:10082000A03AE5D0F0C3A03BE5D0F0C3A03CE5D0B2
:10083000F0C3A03DE5D0F0C3A03EE5D0F0C3A03F9B
:10084000E5D0F0C3C3A040E5D0F0C3A041E5D0F0AF
:10085000C3A042E5D0F0C3A043E5D0F0C3A044E577
:10086000D0F0C3A045E5D0F0C3A046E5D0F0C3A0CA
:1008700047E5D0F0C3C3A048E5D0F0C3A049E5D018
:10088000F0C3A04AE5D0F0C3A04BE5D0F0C3A04C24
:10089000E5D0F0C3A04DE5D0F0C3A04EE5D0F0C345
:1008A000A04FE5D0F0C3C3A050E5D0F0C3A051E500
:1008B000D0F0C3A052E5D0F0C3A053E5D0F0C3A060
:1008C00054E5D0F0C3A055E5D0F0C3A056E5D0F074
:1008D000C3A057E5D0F0C3C3A058E5D0F0C3A059DA
:1008E000E5D0F0C3A05AE5D0F0C3A05BE5D0F0C3DB
:1008F000A05CE5D0F0C3A05DE5D0F0C3A05EE5D07C
:10090000F0C3A05FE5D0F0C3C3A060E5D0F0C3A002
:1009100061E5D0F0C3A062E5D0F0C3A063E5D0F0FC
:10092000C3A064E5D0F0C3A065E5D0F0C3A066E540
:10093000D0F0C3A067E5D0F0C3C3A068E5D0F0C392
:10094000A069E5D0F0C3A06AE5D0F0C3A06BE5D004
:10095000F0C3A06CE5D0F0C3A06DE5D0F0C3A06EED
:10096000E5D0F0C3A06FE5D0F0C3C3A070E5D0F030
:10097000C3A071E5D0F0C3A072E5D0F0C3A073E5C9
:10098000D0F0C3A074E5D0F0C3A075E5D0F0C3A04B
:1009900076E5D0F0C3A077E5D0F0C3C3A078E5D06A
:1009A000F0C3A079E5D0F0C3A07AE5D0F0C3A07B76
:1009B000E5D0F0C3A07CE5D0F0C3A07DE5D0F0C3C6
:1009C000A07EE5D0F0C3A07FE5D0F0C37520AA7566
:1009D00021AA7522AA7523AA7524AA7525AA7526A7
:1009E000AA7527AA7528AA7529AA752AAA752BAAF5
:1009F000752CAA752DAA752EAA752FAAD3A000E56D
:100A0000D0F0D3A001E5D0F0D3A002E5D0F0D3A080
:100A100003E5D0F0D3A004E5D0F0D3A005E5D0F0F5
:100A2000D3A006E5D0F0D3A007E5D0F0D3D3A0083B
:100A3000E5D0F0D3A009E5D0F0D3A00AE5D0F0D3FB
:100A4000A00BE5D0F0D3A00CE5D0F0D3A00DE5D0FD
:100A5000F0D3A00EE5D0F0D3A00FE5D0F0D3D3A013
:100A600010E5D0F0D3A011E5D0F0D3A012E5D0F07E
:100A7000D3A013E5D0F0D3A014E5D0F0D3A015E5B2
:100A8000D0F0D3A016E5D0F0D3A017E5D0F0D3D3A3
:100A9000A018E5D0F0D3A019E5D0F0D3A01AE5D086
:100AA000F0D3A01BE5D0F0D3A01CE5D0F0D3A01D5F
:100AB000E5D0F0D3A01EE5D0F0D3A01FE5D0F0D351
:100AC000D3A020E5D0F0D3A021E5D0F0D3A022E53B
:100AD000D0F0D3A023E5D0F0D3A024E5D0F0D3A06C
:100AE00025E5D0F0D3A026E5D0F0D3A027E5D0F0BF
:100AF000D3D3A028E5D0F0D3A029E5D0F0D3A02A05
:100B0000E5D0F0D3A02BE5D0F0D3A02CE5D0F0D3E6
:100B1000A02DE5D0F0D3A02EE5D0F0D3A02FE5D0C6
:100B2000F0D3D3A030E5D0F0D3A031E5D0F0D3A0FE
:100B300032E5D0F0D3A033E5D0F0D3A034E5D0F047
:100B4000D3A035E5D0F0D3A036E5D0F0D3A037E57B
:100B5000D0F0D3D3A038E5D0F0D3A039E5D0F0D38E
:100B6000A03AE5D0F0D3A03BE5D0F0D3A03CE5D04F
:100B7000F0D3A03DE5D0F0D3A03EE5D0F0D3A03F28
:100B8000E5D0F0D3D3A040E5D0F0D3A041E5D0F03C
:100B9000D3A042E5D0F0D3A043E5D0F0D3A044E504
:100BA000D0F0D3A045E5D0F0D3A046E5D0F0D3A057
:100BB00047E5D0F0D3D3A048E5D0F0D3A049E5D0A5
:100BC000F0D3A04AE5D0F0D3A04BE5D0F0D3A04CB1
:100BD000E5D0F0D3A04DE5D0F0D3A04EE5D0F0D3D2
:100BE000A04FE5D0F0D3D3A050E5D0F0D3A051E58D
:100BF000D0F0D3A052E5D0F0D3A053E5D0F0D3A0ED
:100C000054E5D0F0D3A055E5D0F0D3A056E5D0F010
:100C1000D3A057E5D0F0D3D3A058E5D0F0D3A05956
:100C2000E5D0F0D3A05AE5D0F0D3A05BE5D0F0D367
:100C3000A05CE5D0F0D3A05DE5D0F0D3A05EE5D018
:100C4000F0D3A05FE5D0F0D3D3A060E5D0F0D3A07F
:100C500061E5D0F0D3A062E5D0F0D3A063E5D0F099
:100C6000D3A064E5D0F0D3A065E5D0F0D3A066E5CD
:100C7000D0F0D3A067E5D0F0D3D3A068E5D0F0D30F
:100C8000A069E5D0F0D3A06AE5D0F0D3A06BE5D0A1
:100C9000F0D3A06CE5D0F0D3A06DE5D0F0D3A06E7A
:100CA000E5D0F0D3A06FE5D0F0D3D3A070E5D0F0BD
:100CB000D3A071E5D0F0D3A072E5D0F0D3A073E556
:100CC000D0F0D3A074E5D0F0D3A075E5D0F0D3A0D8
:100CD00076E5D0F0D3A077E5D0F0D3D3A078E5D0F7
:100CE000F0D3A079E5D0F0D3A07AE5D0F0D3A07B03
:100CF000E5D0F0D3A07CE5D0F0D3A07DE5D0F0D353
:100D0000A07EE5D0F0D3A07FE5D0F0D375885575EF
:100D1000985575D05575E05575F055C3A088E5D048
:100D2000F0C3A089E5D0F0C3A08AE5D0F0C3A08BC2
:100D3000E5D0F0C3A08CE5D0F0C3A08DE5D0F0C322
:100D4000A08EE5D0F0C3A08FE5D0F0C3C3A098E596
:100D5000D0F0C3A099E5D0F0C3A09AE5D0F0C3A02D
:100D60009BE5D0F0C3A09CE5D0F0C3A09DE5D0F0FA
:100D7000C3A09EE5D0F0C3A09FE5D0F0C3C3A0D030
:100D8000E5D0F0C3A0D1E5D0F0C3A0D2E5D0F0C348
:100D9000A0D3E5D0F0C3A0D4E5D0F0C3A0D5E5D072
:100DA000F0C3A0D6E5D0F0C3A0D7E5D0F0C3C3A070
:100DB000E0E5D0F0C3A0E1E5D0F0C3A0E2E5D0F0DB
:100DC000C3A0E3E5D0F0C3A0E4E5D0F0C3A0E5E51F
:100DD000D0F0C3A0E6E5D0F0C3A0E7E5D0F0C3C3F0
:100DE000A0F0E5D0F0C3A0F1E5D0F0C3A0F2E5D0CB
:100DF000F0C3A0F3E5D0F0C3A0F4E5D0F0C3A0F5B4
:100E0000E5D0F0C3A0F6E5D0F0C3A0F7E5D0F0C37D
:100E100075885575985575D05575E05575F055D34D
:100E2000A088E5D0F0D3A089E5D0F0D3A08AE5D0A2
:100E3000F0D3A08BE5D0F0D3A08CE5D0F0D3A08D7B
:100E4000E5D0F0D3A08EE5D0F0D3A08FE5D0F0D3DD
:100E5000D3A098E5D0F0D3A099E5D0F0D3A09AE53F
:100E6000D0F0D3A09BE5D0F0D3A09CE5D0F0D3A0E8
:100E70009DE5D0F0D3A09EE5D0F0D3A09FE5D0F0C3
:100E8000D3D3A0D0E5D0F0D3A0D1E5D0F0D3A0D279
:100E9000E5D0F0D3A0D3E5D0F0D3A0D4E5D0F0D303
:100EA000A0D5E5D0F0D3A0D6E5D0F0D3A0D7E5D03B
:100EB000F0D3D3A0E0E5D0F0D3A0E1E5D0F0D3A00B
:100EC000E2E5D0F0D3A0E3E5D0F0D3A0E4E5D0F0A4
:100ED000D3A0E5E5D0F0D3A0E6E5D0F0D3A0E7E5D8
:100EE000D0F0D3D3A0F0E5D0F0D3A0F1E5D0F0D38B
:100EF000A0F2E5D0F0D3A0F3E5D0F0D3A0F4E5D094
:100F0000F0D3A0F5E5D0F0D3A0F6E5D0F0D3A0F76C
:100F1000E5D0F0D37588AA7598AA75D0AA75E0AA0D
:100F200075F0AAC3A088E5D0F0C3A089E5D0F0C3CE
:100F3000A08AE5D0F0C3A08BE5D0F0C3A08CE5D0AB
:100F4000F0C3A08DE5D0F0C3A08EE5D0F0C3A08F94
:100F5000E5D0F0C3C3A098E5D0F0C3A099E5D0F0E8
:100F6000C3A09AE5D0F0C3A09BE5D0F0C3A09CE558
:100F7000D0F0C3A09DE5D0F0C3A09EE5D0F0C3A003
:100F80009FE5D0F0C3C3A0D0E5D0F0C3A0D1E5D099
:100F9000F0C3A0D2E5D0F0C3A0D3E5D0F0C3A0D475
:100FA000E5D0F0C3A0D5E5D0F0C3A0D6E5D0F0C31E
:100FB000A0D7E5D0F0C3C3A0E0E5D0F0C3A0E1E541
:100FC000D0F0C3A0E2E5D0F0C3A0E3E5D0F0C3A029
:100FD000E4E5D0F0C3A0E5E5D0F0C3A0E6E5D0F0AD
:100FE000C3A0E7E5D0F0C3C3A0F0E5D0F0C3A0F103
:100FF000E5D0F0C3A0F2E5D0F0C3A0F3E5D0F0C394
:10100000A0F4E5D0F0C3A0F5E5D0F0C3A0F6E5D09C
:10101000F0C3A0F7E5D0F0C37588AA7598AA75D07B
:10102000AA75E0AA75F0AAD3A088E5D0F0D3A0896C
:10103000E5D0F0D3A08AE5D0F0D3A08BE5D0F0D3F3
:10104000A08CE5D0F0D3A08DE5D0F0D3A08EE5D074
:10105000F0D3A08FE5D0F0D3D3A098E5D0F0D3A003
:1010600099E5D0F0D3A09AE5D0F0D3A09BE5D0F0DD
:10107000D3A09CE5D0F0D3A09DE5D0F0D3A09EE511
:10108000D0F0D3A09FE5D0F0D3D3A0D0E5D0F0D35B
:10109000A0D1E5D0F0D3A0D2E5D0F0D3A0D3E5D055
:1010A000F0D3A0D4E5D0F0D3A0D5E5D0F0D3A0D62E
:1010B000E5D0F0D3A0D7E5D0F0D3D3A0E0E5D0F0D1
:1010C000D3A0E1E5D0F0D3A0E2E5D0F0D3A0E3E5F2
:1010D000D0F0D3A0E4E5D0F0D3A0E5E5D0F0D3A0E4
:1010E000E6E5D0F0D3A0E7E5D0F0D3D3A0F0E5D08B
:1010F000F0D3A0F1E5D0F0D3A0F2E5D0F0D3A0F387
:10110000E5D0F0D3A0F4E5D0F0D3A0F5E5D0F0D34E
:0E111000A0F6E5D0F0D3A0F7E5D0F0D380FE36
:00000001FF
