:1000000075820075830075D000E5D0F0AF838F0056
:10001000E500F0E5D0F0058205820582AF838F010F
:10002000E501F0E5D0F0058205820582AF838F02FD
:10003000E502F0E5D0F0058205820582AF838F03EB
:10004000E503F0E5D0F0058205820582AF838F04D9
:10005000E504F0E5D0F0058205820582AF838F05C7
:10006000E505F0E5D0F0058205820582AF838F06B5
:10007000E506F0E5D0F0058205820582AF838F07A3
:10008000E507F0E5D0F0058205820582AF838F0891
:10009000E508F0E5D0F0058205820582AF838F097F
:1000A000E509F0E5D0F0058205820582AF838F0A6D
:1000B000E50AF0E5D0F0058205820582AF838F0B5B
:1000C000E50BF0E5D0F0058205820582AF838F0C49
:1000D000E50CF0E5D0F0058205820582AF838F0D37
:1000E000E50DF0E5D0F0058205820582AF838F0E25
:1000F000E50EF0E5D0F0058205820582AF838F0F13
:10010000E50FF0E5D0F0058205820582AF838F1000
:10011000E510F0E5D0F0058205820582AF838F11EE
:10012000E511F0E5D0F0058205820582AF838F12DC
:10013000E512F0E5D0F0058205820582AF838F13CA
:10014000E513F0E5D0F0058205820582AF838F14B8
:10015000E514F0E5D0F0058205820582AF838F15A6
:10016000E515F0E5D0F0058205820582AF838F1694
:10017000E516F0E5D0F0058205820582AF838F1782
:10018000E517F0E5D0F0058205820582AF838F1870
:10019000E518F0E5D0F0058205820582AF838F195E
:1001A000E519F0E5D0F0058205820582AF838F1A4C
:1001B000E51AF0E5D0F0058205820582AF838F1B3A
:1001C000E51BF0E5D0F0058205820582AF838F1C28
:1001D000E51CF0E5D0F0058205820582AF838F1D16
:1001E000E51DF0E5D0F0058205820582AF838F1E04
:1001F000E51EF0E5D0F0058205820582AF838F1FF2
:10020000E51FF0E5D0F0058205820582AF838F20DF
:10021000E520F0E5D0F0058205820582AF838F21CD
:10022000E521F0E5D0F0058205820582AF838F22BB
:10023000E522F0E5D0F0058205820582AF838F23A9
:10024000E523F0E5D0F0058205820582AF838F2497
:10025000E524F0E5D0F0058205820582AF838F2585
:10026000E525F0E5D0F0058205820582AF838F2673
:10027000E526F0E5D0F0058205820582AF838F2761
:10028000E527F0E5D0F0058205820582AF838F284F
:10029000E528F0E5D0F0058205820582AF838F293D
:1002A000E529F0E5D0F0058205820582AF838F2A2B
:1002B000E52AF0E5D0F0058205820582AF838F2B19
:1002C000E52BF0E5D0F0058205820582AF838F2C07
:1002D000E52CF0E5D0F0058205820582AF838F2DF5
:1002E000E52DF0E5D0F0058205820582AF838F2EE3
:1002F000E52EF0E5D0F0058205820582AF838F2FD1
:10030000E52FF0E5D0F0058205820582AF838F30BE
:10031000E530F0E5D0F0058205820582AF838F31AC
:10032000E531F0E5D0F0058205820582AF838F329A
:10033000E532F0E5D0F0058205820582AF838F3388
:10034000E533F0E5D0F0058205820582AF838F3476
:10035000E534F0E5D0F0058205820582AF838F3564
:10036000E535F0E5D0F0058205820582AF838F3652
:10037000E536F0E5D0F0058205820582AF838F3740
:10038000E537F0E5D0F0058205820582AF838F382E
:10039000E538F0E5D0F0058205820582AF838F391C
:1003A000E539F0E5D0F0058205820582AF838F3A0A
:1003B000E53AF0E5D0F0058205820582AF838F3BF8
:1003C000E53BF0E5D0F0058205820582AF838F3CE6
:1003D000E53CF0E5D0F0058205820582AF838F3DD4
:1003E000E53DF0E5D0F0058205820582AF838F3EC2
:1003F000E53EF0E5D0F0058205820582AF838F3FB0
:10040000E53FF0E5D0F0058205820582AF838F409D
:10041000E540F0E5D0F0058205820582AF838F418B
:10042000E541F0E5D0F0058205820582AF838F4279
:10043000E542F0E5D0F0058205820582AF838F4367
:10044000E543F0E5D0F0058205820582AF838F4455
:10045000E544F0E5D0F0058205820582AF838F4543
:10046000E545F0E5D0F0058205820582AF838F4631
:10047000E546F0E5D0F0058205820582AF838F471F
:10048000E547F0E5D0F0058205820582AF838F480D
:10049000E548F0E5D0F0058205820582AF838F49FB
:1004A000E549F0E5D0F0058205820582AF838F4AE9
:1004B000E54AF0E5D0F0058205820582AF838F4BD7
:1004C000E54BF0E5D0F0058205820582AF838F4CC5
:1004D000E54CF0E5D0F0058205820582AF838F4DB3
:1004E000E54DF0E5D0F0058205820582AF838F4EA1
:1004F000E54EF0E5D0F0058205820582AF838F4F8F
:10050000E54FF0E5D0F0058205820582AF838F507C
:10051000E550F0E5D0F0058205820582AF838F516A
:10052000E551F0E5D0F0058205820582AF838F5258
:10053000E552F0E5D0F0058205820582AF838F5346
:10054000E553F0E5D0F0058205820582AF838F5434
:10055000E554F0E5D0F0058205820582AF838F5522
:10056000E555F0E5D0F0058205820582AF838F5610
:10057000E556F0E5D0F0058205820582AF838F57FE
:10058000E557F0E5D0F0058205820582AF838F58EC
:10059000E558F0E5D0F0058205820582AF838F59DA
:1005A000E559F0E5D0F0058205820582AF838F5AC8
:1005B000E55AF0E5D0F0058205820582AF838F5BB6
:1005C000E55BF0E5D0F0058205820582AF838F5CA4
:1005D000E55CF0E5D0F0058205820582AF838F5D92
:1005E000E55DF0E5D0F0058205820582AF838F5E80
:1005F000E55EF0E5D0F0058205820582AF838F5F6E
:10060000E55FF0E5D0F0058205820582AF838F605B
:10061000E560F0E5D0F0058205820582AF838F6149
:10062000E561F0E5D0F0058205820582AF838F6237
:10063000E562F0E5D0F0058205820582AF838F6325
:10064000E563F0E5D0F0058205820582AF838F6413
:10065000E564F0E5D0F0058205820582AF838F6501
:10066000E565F0E5D0F0058205820582AF838F66EF
:10067000E566F0E5D0F0058205820582AF838F67DD
:10068000E567F0E5D0F0058205820582AF838F68CB
:10069000E568F0E5D0F0058205820582AF838F69B9
:1006A000E569F0E5D0F0058205820582AF838F6AA7
:1006B000E56AF0E5D0F0058205820582AF838F6B95
:1006C000E56BF0E5D0F0058205820582AF838F6C83
:1006D000E56CF0E5D0F0058205820582AF838F6D71
:1006E000E56DF0E5D0F0058205820582AF838F6E5F
:1006F000E56EF0E5D0F0058205820582AF838F6F4D
:10070000E56FF0E5D0F0058205820582AF838F703A
:10071000E570F0E5D0F0058205820582AF838F7128
:10072000E571F0E5D0F0058205820582AF838F7216
:10073000E572F0E5D0F0058205820582AF838F7304
:10074000E573F0E5D0F0058205820582AF838F74F2
:10075000E574F0E5D0F0058205820582AF838F75E0
:10076000E575F0E5D0F0058205820582AF838F76CE
:10077000E576F0E5D0F0058205820582AF838F77BC
:10078000E577F0E5D0F0058205820582AF838F78AA
:10079000E578F0E5D0F0058205820582AF838F7998
:1007A000E579F0E5D0F0058205820582AF838F7A86
:1007B000E57AF0E5D0F0058205820582AF838F7B74
:1007C000E57BF0E5D0F0058205820582AF838F7C62
:1007D000E57CF0E5D0F0058205820582AF838F7D50
:1007E000E57DF0E5D0F0058205820582AF838F7E3E
:1007F000E57EF0E5D0F0058205820582AF838F7F2C
:10080000E57FF0E5D0F0058205820582AF838F8C0D
:10081000E58CF0E5D0F0058205820582AF838F8DEF
:10082000E58DF0E5D0F0058205820582AF838F8AE1
:10083000E58AF0E5D0F0058205820582AF838F8BD3
:10084000E58BF0E5D0F0058205820582AF838F81CC
:10085000E581F0E5D0F0058205820582AF838F89BE
:10086000E589F0E5D0F0058205820582AF838F88A7
:10087000E588F0E5D0F0058205820582AF838F9888
:10088000E598F0E5D0F0058205820582AF838FF010
:10089000E5F0F0E5D0F0058205820582AF838FE0B8
:1008A000E5E0F0E5D0F0058205820582AF838FD0C8
:1008B000E5D0F0E5D0F0058205820582AF838F8216
:1008C000E582F0E5D0F0058205820582AF838F8353
:0E08D000E583F0E5D0F005820582058280FE0A
:00000001FF
