:1000000075820075830075D000E5D0F07E00DE01BA
:1000100000E5D0F07E55758204DE7F758273807AAC
:10009A00E5D0F07EAA758251DE0575828580000260
:0200AA0005B29D
:0F054100E5D0F07E01758229DE7F758237807AE2
:0F05B200E5D0F07E01758274DE857582928080BF
:0305CA00021FFE0F
:101FDA00E5D0F07E05758295DE0575827D8000026A
:021FEA004A5457
:0F1FFE00E5D0F07EFF758240DED275820380CD84
:03499F0002B20061
:0F49FE00E5D0F07EF2758263DE9775829A809223
:0F4A5400E5D0F07E01758263DEA0758297809BAE
:0FB20000E5D0F07E01758293DE79758219807436
:10B28300E5D0F07E15758263DE0875829F8003002A
:07B293000000E5D0F080FE91
:00000001FF
