:1000000075820075830075D000E5D0F0858200AB65
:1000100000EBF0E5D0F0058205820582858201AB18
:1000200001EBF0E5D0F0058205820582858202AB06
:1000300002EBF0E5D0F0058205820582858203ABF4
:1000400003EBF0E5D0F0058205820582858204ABE2
:1000500004EBF0E5D0F0058205820582858205ABD0
:1000600005EBF0E5D0F0058205820582858206ABBE
:1000700006EBF0E5D0F0058205820582858207ABAC
:1000800007EBF0E5D0F0058205820582858208AB9A
:1000900008EBF0E5D0F0058205820582858209AB88
:1000A00009EBF0E5D0F005820582058285820AAB76
:1000B0000AEBF0E5D0F005820582058285820BAB64
:1000C0000BEBF0E5D0F005820582058285820CAB52
:1000D0000CEBF0E5D0F005820582058285820DAB40
:1000E0000DEBF0E5D0F005820582058285820EAB2E
:1000F0000EEBF0E5D0F005820582058285820FAB1C
:100100000FEBF0E5D0F0058205820582858210AB09
:1001100010EBF0E5D0F0058205820582858211ABF7
:1001200011EBF0E5D0F0058205820582858212ABE5
:1001300012EBF0E5D0F0058205820582858213ABD3
:1001400013EBF0E5D0F0058205820582858214ABC1
:1001500014EBF0E5D0F0058205820582858215ABAF
:1001600015EBF0E5D0F0058205820582858216AB9D
:1001700016EBF0E5D0F0058205820582858217AB8B
:1001800017EBF0E5D0F0058205820582858218AB79
:1001900018EBF0E5D0F0058205820582858219AB67
:1001A00019EBF0E5D0F005820582058285821AAB55
:1001B0001AEBF0E5D0F005820582058285821BAB43
:1001C0001BEBF0E5D0F005820582058285821CAB31
:1001D0001CEBF0E5D0F005820582058285821DAB1F
:1001E0001DEBF0E5D0F005820582058285821EAB0D
:1001F0001EEBF0E5D0F005820582058285821FABFB
:100200001FEBF0E5D0F0058205820582858220ABE8
:1002100020EBF0E5D0F0058205820582858221ABD6
:1002200021EBF0E5D0F0058205820582858222ABC4
:1002300022EBF0E5D0F0058205820582858223ABB2
:1002400023EBF0E5D0F0058205820582858224ABA0
:1002500024EBF0E5D0F0058205820582858225AB8E
:1002600025EBF0E5D0F0058205820582858226AB7C
:1002700026EBF0E5D0F0058205820582858227AB6A
:1002800027EBF0E5D0F0058205820582858228AB58
:1002900028EBF0E5D0F0058205820582858229AB46
:1002A00029EBF0E5D0F005820582058285822AAB34
:1002B0002AEBF0E5D0F005820582058285822BAB22
:1002C0002BEBF0E5D0F005820582058285822CAB10
:1002D0002CEBF0E5D0F005820582058285822DABFE
:1002E0002DEBF0E5D0F005820582058285822EABEC
:1002F0002EEBF0E5D0F005820582058285822FABDA
:100300002FEBF0E5D0F0058205820582858230ABC7
:1003100030EBF0E5D0F0058205820582858231ABB5
:1003200031EBF0E5D0F0058205820582858232ABA3
:1003300032EBF0E5D0F0058205820582858233AB91
:1003400033EBF0E5D0F0058205820582858234AB7F
:1003500034EBF0E5D0F0058205820582858235AB6D
:1003600035EBF0E5D0F0058205820582858236AB5B
:1003700036EBF0E5D0F0058205820582858237AB49
:1003800037EBF0E5D0F0058205820582858238AB37
:1003900038EBF0E5D0F0058205820582858239AB25
:1003A00039EBF0E5D0F005820582058285823AAB13
:1003B0003AEBF0E5D0F005820582058285823BAB01
:1003C0003BEBF0E5D0F005820582058285823CABEF
:1003D0003CEBF0E5D0F005820582058285823DABDD
:1003E0003DEBF0E5D0F005820582058285823EABCB
:1003F0003EEBF0E5D0F005820582058285823FABB9
:100400003FEBF0E5D0F0058205820582858240ABA6
:1004100040EBF0E5D0F0058205820582858241AB94
:1004200041EBF0E5D0F0058205820582858242AB82
:1004300042EBF0E5D0F0058205820582858243AB70
:1004400043EBF0E5D0F0058205820582858244AB5E
:1004500044EBF0E5D0F0058205820582858245AB4C
:1004600045EBF0E5D0F0058205820582858246AB3A
:1004700046EBF0E5D0F0058205820582858247AB28
:1004800047EBF0E5D0F0058205820582858248AB16
:1004900048EBF0E5D0F0058205820582858249AB04
:1004A00049EBF0E5D0F005820582058285824AABF2
:1004B0004AEBF0E5D0F005820582058285824BABE0
:1004C0004BEBF0E5D0F005820582058285824CABCE
:1004D0004CEBF0E5D0F005820582058285824DABBC
:1004E0004DEBF0E5D0F005820582058285824EABAA
:1004F0004EEBF0E5D0F005820582058285824FAB98
:100500004FEBF0E5D0F0058205820582858250AB85
:1005100050EBF0E5D0F0058205820582858251AB73
:1005200051EBF0E5D0F0058205820582858252AB61
:1005300052EBF0E5D0F0058205820582858253AB4F
:1005400053EBF0E5D0F0058205820582858254AB3D
:1005500054EBF0E5D0F0058205820582858255AB2B
:1005600055EBF0E5D0F0058205820582858256AB19
:1005700056EBF0E5D0F0058205820582858257AB07
:1005800057EBF0E5D0F0058205820582858258ABF5
:1005900058EBF0E5D0F0058205820582858259ABE3
:1005A00059EBF0E5D0F005820582058285825AABD1
:1005B0005AEBF0E5D0F005820582058285825BABBF
:1005C0005BEBF0E5D0F005820582058285825CABAD
:1005D0005CEBF0E5D0F005820582058285825DAB9B
:1005E0005DEBF0E5D0F005820582058285825EAB89
:1005F0005EEBF0E5D0F005820582058285825FAB77
:100600005FEBF0E5D0F0058205820582858260AB64
:1006100060EBF0E5D0F0058205820582858261AB52
:1006200061EBF0E5D0F0058205820582858262AB40
:1006300062EBF0E5D0F0058205820582858263AB2E
:1006400063EBF0E5D0F0058205820582858264AB1C
:1006500064EBF0E5D0F0058205820582858265AB0A
:1006600065EBF0E5D0F0058205820582858266ABF8
:1006700066EBF0E5D0F0058205820582858267ABE6
:1006800067EBF0E5D0F0058205820582858268ABD4
:1006900068EBF0E5D0F0058205820582858269ABC2
:1006A00069EBF0E5D0F005820582058285826AABB0
:1006B0006AEBF0E5D0F005820582058285826BAB9E
:1006C0006BEBF0E5D0F005820582058285826CAB8C
:1006D0006CEBF0E5D0F005820582058285826DAB7A
:1006E0006DEBF0E5D0F005820582058285826EAB68
:1006F0006EEBF0E5D0F005820582058285826FAB56
:100700006FEBF0E5D0F0058205820582858270AB43
:1007100070EBF0E5D0F0058205820582858271AB31
:1007200071EBF0E5D0F0058205820582858272AB1F
:1007300072EBF0E5D0F0058205820582858273AB0D
:1007400073EBF0E5D0F0058205820582858274ABFB
:1007500074EBF0E5D0F0058205820582858275ABE9
:1007600075EBF0E5D0F0058205820582858276ABD7
:1007700076EBF0E5D0F0058205820582858277ABC5
:1007800077EBF0E5D0F0058205820582858278ABB3
:1007900078EBF0E5D0F0058205820582858279ABA1
:1007A00079EBF0E5D0F005820582058285827AAB8F
:1007B0007AEBF0E5D0F005820582058285827BAB7D
:1007C0007BEBF0E5D0F005820582058285827CAB6B
:1007D0007CEBF0E5D0F005820582058285827DAB59
:1007E0007DEBF0E5D0F005820582058285827EAB47
:1007F0007EEBF0E5D0F005820582058285827FAB35
:100800007FEBF0E5D0F005820582058285828CAB16
:100810008CF0E5D0F005820582058285828DAB8D56
:10082000F0E5D0F005820582058285828AAB8AF0E8
:10083000E5D0F005820582058285828BAB8BF0E5E1
:10084000D0F0058205820582858281AB81F0E5D0FA
:10085000F0058205820582858289AB89F0E5D0F0BA
:10086000058205820582858288AB88F0E5D0F00597
:100870008205820582858298AB98F0E5D0F00582EA
:10088000058205828582F0ABF0F0E5D0F0058205A7
:100890008205828582E0ABE0F0E5D0F0058205823A
:1008A00005828582D0ABD0F0E5D0F00582058205C7
:1008B00082858282AB82F0E5D0F0058205820582D6
:1008C000858283AB83F0E5D0F005820582058280C6
:0108D000FE29
:00000001FF
