:1000000075820075830075D000E5D0F07C00DC01BE
:1000100000E5D0F07C55758204DC7F758273807AB0
:10009A00E5D0F07CAA758251DC0575828580000264
:0200AA0005B29D
:0F054100E5D0F07C01758229DC7F758237807AE6
:0F05B200E5D0F07C01758274DC857582928080C3
:0305CA00021FFE0F
:101FDA00E5D0F07C05758295DC0575827D8000026E
:021FEA004A5457
:0F1FFE00E5D0F07CFF758240DCD275820380CD88
:03499F0002B20061
:0F49FE00E5D0F07CF2758263DC9775829A809227
:0F4A5400E5D0F07C01758263DCA0758297809BB2
:0FB20000E5D0F07C01758293DC7975821980743A
:10B28300E5D0F07C15758263DC0875829F8003002E
:07B293000000E5D0F080FE91
:00000001FF
