:1000000075820075830075D000E5D0F07F00BF01D8
:100010000100E5D0F07F55758204BF017D758273C4
:020020008078E6
:10009A00E5D0F07FAA758251BF1905758285800067
:0300AA000205B29A
:10054200E5D0F07F01758229BF017D758237807801
:1005B200E5D0F07FFF758274BFFF857582928080DF
:0305CA00021FFE0F
:101FDA00E5D0F07F05758295BFA80575827D8000E2
:031FEA00024A5454
:101FFE00E5D0F07FFF758240BFFED175820380CCA5
:03499F0002B20061
:1049FE00E5D0F07FF2758263BF649675829A8091DE
:104A5400E5D0F07F55758263BF559F758297809A24
:10B20000E5D0F07FAA758293BFAA78758219807302
:10B28300E5D0F07F15758263BFD20875829F800376
:08B29300000000E5D0F080FE90
:00000001FF
