:1000000075820075830075D000E5D0F07A00DA01C2
:1000100000E5D0F07A55758204DA7F758273807AB4
:10009A00E5D0F07AAA758251DA0575828580000268
:0200AA0005B29D
:0F054100E5D0F07A01758229DA7F758237807AEA
:0F05B200E5D0F07A01758274DA857582928080C7
:0305CA00021FFE0F
:101FDA00E5D0F07A05758295DA0575827D80000272
:021FEA004A5457
:0F1FFE00E5D0F07AFF758240DAD275820380CD8C
:03499F0002B20061
:0F49FE00E5D0F07AF2758263DA9775829A80922B
:0F4A5400E5D0F07A01758263DAA0758297809BB6
:0FB20000E5D0F07A01758293DA7975821980743E
:10B28300E5D0F07A15758263DA0875829F80030032
:07B293000000E5D0F080FE91
:00000001FF
