:1000000075820075830075D000E5D0F07403B401EB
:10001000020000E5D0F074B4B4B40100E5D0F0748F
:06002000FAB4135E805CDF
:0300820002E28314
:0A01F400E5D0F07472B471178015A5
:03021300025FFA8D
:0A28F900E5D0F07438B4DE7D807B7A
:03297E000235829D
:0A358200E5D0F07422B42257805502
:0235E10080FE6A
:0B40F900E5D0F074B2B4457E02417FB8
:03417F000228F91A
:035601000240F86C
:0A562400E5D0F074FFB4FFD580D389
:0A5FFA00E5D0F07485B48612801023
:03601400028ED227
:0A8ED200E5D0F07455B4553B80392B
:038F1500025624DD
:03E255000201F4CF
:0AE28300E5D0F07485B486CA80C8A7
:00000001FF
