:0F00000075820075830075D000E5D0F002007F97
:0600640074AAF002008FF7
:10007F00C2007582002000DDD2007582C32000D53A
:03008F000209F76C
:0609E80074AAF0020A07E8
:1009F700C20D75824A200DE9D20D758242200DE1A4
:030A070002115485
:10115400C213758256201316D21375821720130EEC
:0911720074AAF00211780217F8CA
:0617B40074AAF0021808FF
:1017F800C21F75821C201FB4D21F758204201FAC23
:03180800021EA518
:101EA500C2277582D5202726D2277582B420271E02
:091ED30074AAF0021ED90226F9DE
:0626AB0074AAF0022709E9
:1026F900C22E7582AC202EAAD22E7582A4202EA2BB
:0327090002336236
:10336200C23475822420340DD23475826320340530
:0933770074AAF002337D023AF65B
:063A860074AAF0023B06E9
:103AF600C2357582C4203588D235758272203580EC
:033B060002427FF9
:0642640074AAF002428F73
:10427F00C2427582D42042DDD2427582BE2042D521
:03428F000245F7EE
:0645E80074AAF002460770
:1045F700C24875827D2048E9D2487582C02048E1CB
:0346070002555405
:10555400C252758222205216D25275827020520E87
:0955720074AAF0025578025DF8FC
:065DB40074AAF0025E0873
:105DF800C2637582802063B4D2637582B92063ACB4
:035E08000260A590
:1060A500C2727582BA207226D27275828320721EE0
:0960D30074AAF00260D90267F919
:0667AB0074AAF002680967
:1067F900C27F7582A8207FAAD27F7582E9207FA2F5
:03680900026B62BD
:106B6200C28A7582E3208A0DD28A7582A4208A05A0
:096B770074AAF0026B7D0276F6AF
:0676860074AAF002770671
:1076F600C28D75821B208D88D28D75827D208D80EE
:0377060002817F7E
:0681640074AAF002818FF5
:10817F00C29E758278209EDDD29E7582EA209ED5A2
:03818F00028AF76A
:068AE80074AAF0028B07E6
:108AF700C29B758250209BE9D29B7582AE209BE179
:038B070002945481
:10945400C2F27582BB20F216D2F275822220F20E7D
:0994720074AAF00294780297F844
:0697B40074AAF0029808FF
:1097F800C2F67582DB20F6B4D2F675828C20F6AC00
:0398080002A5A511
:10A5A500C2E07582A420E026D2E075821920E01E63
:09A5D30074AAF002A5D902ABF94B
:06ABAB0074AAF002AC09DF
:10ABF900C2E175824D20E1AAD2E175822420E1A249
:03AC090002B26232
:10B26200C2E275828E20E20DD2E275822220E205D0
:09B2770074AAF002B27D02BFF6D8
:06BF860074AAF002C006DF
:10BFF600C2E375824220E388D2E375828720E3801C
:03C0060002C37FF3
:06C3640074AAF002C38F71
:10C37F00C2E475824220E4DDD2E475829B20E4D5CD
:03C38F0002C8F7EA
:06C8E80074AAF002C9076A
:10C8F700C2E57582B120E5E9D2E575821020E5E150
:03C9070002D15406
:10D15400C2E675821B20E616D2E67582C520E60E6D
:09D1720074AAF002D17802DAF887
:06DAB40074AAF002DB0879
:10DAF800C2E775829620E7B4D2E77582B720E7AC13
:03DB080002E2A591
:10E2A500C2D775825C20D726D2D77582C220D71EE9
:09E2D30074AAF002E2D902E5F997
:06E5AB0074AAF002E6096B
:10E5F900C2D675821120D6AAD2D675820220D6A299
:03E6090002F462B6
:10F46200C2B87582A320B80DD2B875828320B805C0
:09F4770074AAF002F47D02FEF615
:06FE860074AAF002FF0661
:10FEF600C2AA75825C20AA88D2AA75824420AA80EA
:02FF060080FE7B
:00000001FF
