:1000000075820075830075D000E5D0F0740044005F
:10001000F0E5D0F074C34401F0E5D0F0744A440236
:10002000F0E5D0F074424403F0E5D0F07456440497
:10003000F0E5D0F074174405F0E5D0F0741C4406E8
:10004000F0E5D0F074044407F0E5D0F074D544082E
:10005000F0E5D0F074B44409F0E5D0F074AC440A93
:10006000F0E5D0F074A4440BF0E5D0F07424440C17
:10007000F0E5D0F07463440DF0E5D0F074C4440EA4
:10008000F0E5D0F07472440FF0E5D0F074D4441071
:10009000F0E5D0F074BE4411F0E5D0F0747D441268
:1000A000F0E5D0F074C04413F0E5D0F074224414AD
:1000B000F0E5D0F074704415F0E5D0F0748044168B
:1000C000F0E5D0F074B94417F0E5D0F074BA4418F4
:1000D000F0E5D0F074834419F0E5D0F074A8441A28
:1000E000F0E5D0F074E9441BF0E5D0F074E3441C73
:1000F000F0E5D0F074A4441DF0E5D0F0741B441E6C
:10010000F0E5D0F0747D441FF0E5D0F07478442021
:10011000F0E5D0F074EA4421F0E5D0F074504422C8
:10012000F0E5D0F074AE4423F0E5D0F074BB442485
:10013000F0E5D0F074224425F0E5D0F074DB4426DD
:10014000F0E5D0F0748C4427F0E5D0F074A4442896
:10015000F0E5D0F074194429F0E5D0F0744D442A4C
:10016000F0E5D0F07424442BF0E5D0F0748E442CEC
:10017000F0E5D0F07422442DF0E5D0F07442442E26
:10018000F0E5D0F07487442FF0E5D0F074424430AD
:10019000F0E5D0F0749B4431F0E5D0F074B1443216
:1001A000F0E5D0F074104433F0E5D0F0741B443423
:1001B000F0E5D0F074C54435F0E5D0F074964436DF
:1001C000F0E5D0F074B74437F0E5D0F0745C443813
:1001D000F0E5D0F074C24439F0E5D0F07411443A3F
:1001E000F0E5D0F07402443BF0E5D0F074A3443C59
:1001F000F0E5D0F07483443DF0E5D0F0745C443E0B
:10020000F0E5D0F07444443FF0E5D0F0749A4440F7
:10021000F0E5D0F074D44441F0E5D0F07474444279
:10022000F0E5D0F074BB4443F0E5D0F0748A444468
:10023000F0E5D0F074684445F0E5D0F0748D4446A4
:10024000F0E5D0F074A14447F0E5D0F0747644486E
:10025000F0E5D0F074104449F0E5D0F0748A444AD7
:10026000F0E5D0F0741D444BF0E5D0F074CA444C76
:10027000F0E5D0F074D4444DF0E5D0F074AB444ECA
:10028000F0E5D0F07479444FF0E5D0F07423445099
:10029000F0E5D0F074E54451F0E5D0F0741E44521E
:1002A000F0E5D0F074404453F0E5D0F0741D4454B0
:1002B000F0E5D0F0748A4455F0E5D0F0741A445655
:1002C000F0E5D0F074044457F0E5D0F074D8445809
:1002D000F0E5D0F074464459F0E5D0F074D5445AB6
:1002E000F0E5D0F07457445BF0E5D0F0741C445C4A
:1002F000F0E5D0F074B2445DF0E5D0F074D7445E20
:10030000F0E5D0F0741D445FF0E5D0F07463446014
:10031000F0E5D0F074C84461F0E5D0F0741944629F
:10032000F0E5D0F074D84463F0E5D0F0744644644E
:10033000F0E5D0F074324465F0E5D0F074AE446678
:10034000F0E5D0F0749A4467F0E5D0F07481446829
:10035000F0E5D0F074B24469F0E5D0F0743D446A41
:10036000F0E5D0F074A6446BF0E5D0F074E2446C94
:10037000F0E5D0F07402446DF0E5D0F07405446E01
:10038000F0E5D0F07455446FF0E5D0F07416447089
:10039000F0E5D0F074764471F0E5D0F074AC4472BE
:1003A000F0E5D0F074834473F0E5D0F074584474F1
:1003B000F0E5D0F074D94475F0E5D0F0743A4476A5
:1003C000F0E5D0F0748D4477F0E5D0F074554478C2
:1003D000F0E5D0F0749B4479F0E5D0F07463447A92
:1003E000F0E5D0F074AC447BF0E5D0F074BD447C13
:1003F000F0E5D0F0742B447DF0E5D0F07444447EF9
:10040000F0E5D0F074A6447FF0E5D0F074E24480CB
:10041000F0E5D0F074034481F0E5D0F074D4448268
:10042000F0E5D0F074CB4483F0E5D0F074E444847C
:10043000F0E5D0F0745C4485F0E5D0F074034486B8
:10044000F0E5D0F074074487F0E5D0F0746044889C
:10045000F0E5D0F0742A4489F0E5D0F07445448A80
:10046000F0E5D0F07483448BF0E5D0F07424448C34
:10047000F0E5D0F0741A448DF0E5D0F0744B448E62
:10048000F0E5D0F07498448FF0E5D0F074D044904B
:10049000F0E5D0F0743D4491F0E5D0F074A04492C2
:1004A000F0E5D0F074224493F0E5D0F07466449403
:1004B000F0E5D0F074204495F0E5D0F0747B4496DC
:1004C000F0E5D0F074834497F0E5D0F074C0449820
:1004D000F0E5D0F074714499F0E5D0F07459449A85
:1004E000F0E5D0F0743C449BF0E5D0F07476449C89
:1004F000F0E5D0F0740E449DF0E5D0F07420449EF9
:10050000F0E5D0F07401449FF0E5D0F074CE44A043
:10051000F0E5D0F0741344A1F0E5D0F074BE44A22D
:10052000F0E5D0F0747044A3F0E5D0F0748C44A4EE
:10053000F0E5D0F074D744A5F0E5D0F0749E44A661
:10054000F0E5D0F074BA44A7F0E5D0F074DE44A82A
:10055000F0E5D0F074AB44A9F0E5D0F0740544AAFE
:10056000F0E5D0F0744144ABF0E5D0F074B344ACA6
:10057000F0E5D0F074CD44ADF0E5D0F0740D44AEAC
:10058000F0E5D0F074D744AFF0E5D0F074A544B0F6
:10059000F0E5D0F0746B44B1F0E5D0F074A544B24E
:1005A000F0E5D0F0749744B3F0E5D0F074E144B4D2
:1005B000F0E5D0F074E044B5F0E5D0F0749544B6C1
:1005C000F0E5D0F0747944B7F0E5D0F074C944B8E0
:1005D000F0E5D0F074E744B9F0E5D0F0747E44BAA9
:1005E000F0E5D0F0743244BBF0E5D0F0746A44BC5E
:1005F000F0E5D0F074B044BDF0E5D0F0749C44BE9A
:10060000F0E5D0F0746244BFF0E5D0F0749144C0DE
:10061000F0E5D0F074EB44C1F0E5D0F074D644C2FC
:10062000F0E5D0F0740344C3F0E5D0F0748D44C419
:10063000F0E5D0F0740744C5F0E5D0F074DD44C6B1
:10064000F0E5D0F074CA44C7F0E5D0F074E344C8D4
:10065000F0E5D0F0742944C9F0E5D0F074C244CA82
:10066000F0E5D0F0740C44CBF0E5D0F0748744CCC6
:10067000F0E5D0F0746244CDF0E5D0F074BD44CE26
:10068000F0E5D0F0741844CFF0E5D0F074B344D066
:10069000F0E5D0F0747644D1F0E5D0F0747A44D22D
:1006A000F0E5D0F074B444D3F0E5D0F0740944D44C
:1006B000F0E5D0F0744044D5F0E5D0F0746344D652
:1006C000F0E5D0F0741944D7F0E5D0F074C544D803
:1006D000F0E5D0F0744744D9F0E5D0F074DA44DAAC
:1006E000F0E5D0F0746144DBF0E5D0F074C344DC95
:1006F000F0E5D0F0740544DDF0E5D0F074DC44DEC4
:10070000F0E5D0F0746344DFF0E5D0F0746544E0C8
:10071000F0E5D0F0749644E1F0E5D0F0749B44E24B
:10072000F0E5D0F074C644E3F0E5D0F0748944E419
:10073000F0E5D0F0744344E5F0E5D0F0746A44E6A7
:10074000F0E5D0F0749244E7F0E5D0F074E044E8CE
:10075000F0E5D0F0744D44E9F0E5D0F0747744EA68
:10076000F0E5D0F074DA44EBF0E5D0F0746844ECD6
:10077000F0E5D0F0742E44EDF0E5D0F0747244EE64
:10078000F0E5D0F0744944EFF0E5D0F074C744F0E0
:10079000F0E5D0F0742644F1F0E5D0F0742444F292
:1007A000F0E5D0F0749C44F3F0E5D0F074C244F46A
:1007B000F0E5D0F0742B44F5F0E5D0F0744544F644
:1007C000F0E5D0F0743044F7F0E5D0F074DA44F896
:1007D000F0E5D0F0741944F9F0E5D0F0740944FA6A
:1007E000F0E5D0F0748B44FBF0E5D0F0742D44FCC0
:1007F000F0E5D0F074C944FDF0E5D0F0747B44FE20
:0E080000F0E5D0F074B244FFF0E5D0F080FED9
:00000001FF
