:1000000075820075830075D000E5D0F0858200AA66
:1000100000EAF0E5D0F0058205820582858201AA1A
:1000200001EAF0E5D0F0058205820582858202AA08
:1000300002EAF0E5D0F0058205820582858203AAF6
:1000400003EAF0E5D0F0058205820582858204AAE4
:1000500004EAF0E5D0F0058205820582858205AAD2
:1000600005EAF0E5D0F0058205820582858206AAC0
:1000700006EAF0E5D0F0058205820582858207AAAE
:1000800007EAF0E5D0F0058205820582858208AA9C
:1000900008EAF0E5D0F0058205820582858209AA8A
:1000A00009EAF0E5D0F005820582058285820AAA78
:1000B0000AEAF0E5D0F005820582058285820BAA66
:1000C0000BEAF0E5D0F005820582058285820CAA54
:1000D0000CEAF0E5D0F005820582058285820DAA42
:1000E0000DEAF0E5D0F005820582058285820EAA30
:1000F0000EEAF0E5D0F005820582058285820FAA1E
:100100000FEAF0E5D0F0058205820582858210AA0B
:1001100010EAF0E5D0F0058205820582858211AAF9
:1001200011EAF0E5D0F0058205820582858212AAE7
:1001300012EAF0E5D0F0058205820582858213AAD5
:1001400013EAF0E5D0F0058205820582858214AAC3
:1001500014EAF0E5D0F0058205820582858215AAB1
:1001600015EAF0E5D0F0058205820582858216AA9F
:1001700016EAF0E5D0F0058205820582858217AA8D
:1001800017EAF0E5D0F0058205820582858218AA7B
:1001900018EAF0E5D0F0058205820582858219AA69
:1001A00019EAF0E5D0F005820582058285821AAA57
:1001B0001AEAF0E5D0F005820582058285821BAA45
:1001C0001BEAF0E5D0F005820582058285821CAA33
:1001D0001CEAF0E5D0F005820582058285821DAA21
:1001E0001DEAF0E5D0F005820582058285821EAA0F
:1001F0001EEAF0E5D0F005820582058285821FAAFD
:100200001FEAF0E5D0F0058205820582858220AAEA
:1002100020EAF0E5D0F0058205820582858221AAD8
:1002200021EAF0E5D0F0058205820582858222AAC6
:1002300022EAF0E5D0F0058205820582858223AAB4
:1002400023EAF0E5D0F0058205820582858224AAA2
:1002500024EAF0E5D0F0058205820582858225AA90
:1002600025EAF0E5D0F0058205820582858226AA7E
:1002700026EAF0E5D0F0058205820582858227AA6C
:1002800027EAF0E5D0F0058205820582858228AA5A
:1002900028EAF0E5D0F0058205820582858229AA48
:1002A00029EAF0E5D0F005820582058285822AAA36
:1002B0002AEAF0E5D0F005820582058285822BAA24
:1002C0002BEAF0E5D0F005820582058285822CAA12
:1002D0002CEAF0E5D0F005820582058285822DAA00
:1002E0002DEAF0E5D0F005820582058285822EAAEE
:1002F0002EEAF0E5D0F005820582058285822FAADC
:100300002FEAF0E5D0F0058205820582858230AAC9
:1003100030EAF0E5D0F0058205820582858231AAB7
:1003200031EAF0E5D0F0058205820582858232AAA5
:1003300032EAF0E5D0F0058205820582858233AA93
:1003400033EAF0E5D0F0058205820582858234AA81
:1003500034EAF0E5D0F0058205820582858235AA6F
:1003600035EAF0E5D0F0058205820582858236AA5D
:1003700036EAF0E5D0F0058205820582858237AA4B
:1003800037EAF0E5D0F0058205820582858238AA39
:1003900038EAF0E5D0F0058205820582858239AA27
:1003A00039EAF0E5D0F005820582058285823AAA15
:1003B0003AEAF0E5D0F005820582058285823BAA03
:1003C0003BEAF0E5D0F005820582058285823CAAF1
:1003D0003CEAF0E5D0F005820582058285823DAADF
:1003E0003DEAF0E5D0F005820582058285823EAACD
:1003F0003EEAF0E5D0F005820582058285823FAABB
:100400003FEAF0E5D0F0058205820582858240AAA8
:1004100040EAF0E5D0F0058205820582858241AA96
:1004200041EAF0E5D0F0058205820582858242AA84
:1004300042EAF0E5D0F0058205820582858243AA72
:1004400043EAF0E5D0F0058205820582858244AA60
:1004500044EAF0E5D0F0058205820582858245AA4E
:1004600045EAF0E5D0F0058205820582858246AA3C
:1004700046EAF0E5D0F0058205820582858247AA2A
:1004800047EAF0E5D0F0058205820582858248AA18
:1004900048EAF0E5D0F0058205820582858249AA06
:1004A00049EAF0E5D0F005820582058285824AAAF4
:1004B0004AEAF0E5D0F005820582058285824BAAE2
:1004C0004BEAF0E5D0F005820582058285824CAAD0
:1004D0004CEAF0E5D0F005820582058285824DAABE
:1004E0004DEAF0E5D0F005820582058285824EAAAC
:1004F0004EEAF0E5D0F005820582058285824FAA9A
:100500004FEAF0E5D0F0058205820582858250AA87
:1005100050EAF0E5D0F0058205820582858251AA75
:1005200051EAF0E5D0F0058205820582858252AA63
:1005300052EAF0E5D0F0058205820582858253AA51
:1005400053EAF0E5D0F0058205820582858254AA3F
:1005500054EAF0E5D0F0058205820582858255AA2D
:1005600055EAF0E5D0F0058205820582858256AA1B
:1005700056EAF0E5D0F0058205820582858257AA09
:1005800057EAF0E5D0F0058205820582858258AAF7
:1005900058EAF0E5D0F0058205820582858259AAE5
:1005A00059EAF0E5D0F005820582058285825AAAD3
:1005B0005AEAF0E5D0F005820582058285825BAAC1
:1005C0005BEAF0E5D0F005820582058285825CAAAF
:1005D0005CEAF0E5D0F005820582058285825DAA9D
:1005E0005DEAF0E5D0F005820582058285825EAA8B
:1005F0005EEAF0E5D0F005820582058285825FAA79
:100600005FEAF0E5D0F0058205820582858260AA66
:1006100060EAF0E5D0F0058205820582858261AA54
:1006200061EAF0E5D0F0058205820582858262AA42
:1006300062EAF0E5D0F0058205820582858263AA30
:1006400063EAF0E5D0F0058205820582858264AA1E
:1006500064EAF0E5D0F0058205820582858265AA0C
:1006600065EAF0E5D0F0058205820582858266AAFA
:1006700066EAF0E5D0F0058205820582858267AAE8
:1006800067EAF0E5D0F0058205820582858268AAD6
:1006900068EAF0E5D0F0058205820582858269AAC4
:1006A00069EAF0E5D0F005820582058285826AAAB2
:1006B0006AEAF0E5D0F005820582058285826BAAA0
:1006C0006BEAF0E5D0F005820582058285826CAA8E
:1006D0006CEAF0E5D0F005820582058285826DAA7C
:1006E0006DEAF0E5D0F005820582058285826EAA6A
:1006F0006EEAF0E5D0F005820582058285826FAA58
:100700006FEAF0E5D0F0058205820582858270AA45
:1007100070EAF0E5D0F0058205820582858271AA33
:1007200071EAF0E5D0F0058205820582858272AA21
:1007300072EAF0E5D0F0058205820582858273AA0F
:1007400073EAF0E5D0F0058205820582858274AAFD
:1007500074EAF0E5D0F0058205820582858275AAEB
:1007600075EAF0E5D0F0058205820582858276AAD9
:1007700076EAF0E5D0F0058205820582858277AAC7
:1007800077EAF0E5D0F0058205820582858278AAB5
:1007900078EAF0E5D0F0058205820582858279AAA3
:1007A00079EAF0E5D0F005820582058285827AAA91
:1007B0007AEAF0E5D0F005820582058285827BAA7F
:1007C0007BEAF0E5D0F005820582058285827CAA6D
:1007D0007CEAF0E5D0F005820582058285827DAA5B
:1007E0007DEAF0E5D0F005820582058285827EAA49
:1007F0007EEAF0E5D0F005820582058285827FAA37
:100800007FEAF0E5D0F005820582058285828CAA18
:100810008CF0E5D0F005820582058285828DAA8D57
:10082000F0E5D0F005820582058285828AAA8AF0E9
:10083000E5D0F005820582058285828BAA8BF0E5E2
:10084000D0F0058205820582858281AA81F0E5D0FB
:10085000F0058205820582858289AA89F0E5D0F0BB
:10086000058205820582858288AA88F0E5D0F00598
:100870008205820582858298AA98F0E5D0F00582EB
:10088000058205828582F0AAF0F0E5D0F0058205A8
:100890008205828582E0AAE0F0E5D0F0058205823B
:1008A00005828582D0AAD0F0E5D0F00582058205C8
:1008B00082858282AA82F0E5D0F0058205820582D7
:1008C000858283AA83F0E5D0F005820582058280C7
:0108D000FE29
:00000001FF
