:1000000075820075830075D000758107E5D0F075A5
:100010000000C000E508F0750000D000E500F0E544
:10002000D0F07501C3C001E508F0750100D001E50D
:1000300001F0E5D0F075024AC002E508F075020053
:10004000D002E502F0E5D0F0750342C003E508F008
:10005000750300D003E503F0E5D0F0750456C00445
:10006000E508F0750400D004E504F0E5D0F075056E
:1000700017C005E508F0750500D005E505F0E5D0E9
:10008000F075061CC006E508F0750600D006E5060A
:10009000F0E5D0F0750704C007E508F0750700D05B
:1000A00007E507F0E5D0F07508D5C008E508F0755C
:1000B0000800D008E508F0E5D0F07509B4C009E5FE
:1000C00008F0750900D009E509F0E5D0F0750AAC33
:1000D000C00AE508F0750A00D00AE50AF0E5D0F09C
:1000E000750BA4C00BE508F0750B00D00BE50BF009
:1000F000E5D0F0750C24C00CE508F0750C00D00CB0
:10010000E50CF0E5D0F0750D63C00DE508F0750D58
:1001100000D00DE50DF0E5D0F0750EC4C00EE50879
:10012000F0750E00D00EE50EF0E5D0F0750F72C040
:100130000FE508F0750F00D00FE50FF0E5D0F07572
:1001400010D4C010E508F0751000D010E510F0E5EF
:10015000D0F07511BEC011E508F0751100D011E5A1
:1001600011F0E5D0F075127DC012E508F0751200AF
:10017000D012E512F0E5D0F07513C0C013E508F019
:10018000751300D013E513F0E5D0F0751422C014F8
:10019000E508F0751400D014E514F0E5D0F07515FD
:1001A00070C015E508F0751500D015E515F0E5D01F
:1001B000F0751680C016E508F0751600D016E51625
:1001C000F0E5D0F07517B9C017E508F0751700D045
:1001D00017E517F0E5D0F07518BAC018E508F07506
:1001E0001800D018E518F0E5D0F0751983C019E5AE
:1001F00008F0751900D019E519F0E5D0F0751AA8C6
:10020000C01AE508F0751A00D01AE51AF0E5D0F02A
:10021000751BE9C01BE508F0751B00D01BE51BF042
:10022000E5D0F0751CE3C01CE508F0751C00D01C7F
:10023000E51CF0E5D0F0751DA4C01DE508F0751DA6
:1002400000D01DE51DF0E5D0F0751E1BC01EE508B1
:10025000F0751E00D01EE51EF0E5D0F0751F7DC0C4
:100260001FE508F0751F00D01FE51FF0E5D0F07501
:100270002078C020E508F0752000D020E520F0E5CA
:10028000D0F07521EAC021E508F0752100D021E504
:1002900021F0E5D0F0752250C022E508F07522006B
:1002A000D022E522F0E5D0F07523AEC023E508F0BA
:1002B000752300D023E523F0E5D0F07524BBC024DE
:1002C000E508F0752400D024E524F0E5D0F075258C
:1002D00022C025E508F0752500D025E525F0E5D0FC
:1002E000F07526DBC026E508F0752600D026E52649
:1002F000F0E5D0F075278CC027E508F0752700D011
:1003000027E527F0E5D0F07528A4C028E508F075AA
:100310002800D028E528F0E5D0F0752919C029E596
:1003200008F0752900D029E529F0E5D0F0752A4DAF
:10033000C02AE508F0752A00D02AE52AF0E5D0F0B9
:10034000752B24C02BE508F0752B00D02BE52BF086
:10035000E5D0F0752C8EC02CE508F0752C00D02C63
:10036000E52CF0E5D0F0752D22C02DE508F0752DB7
:1003700000D02DE52DF0E5D0F0752E42C02EE50819
:10038000F0752E00D02EE52EF0E5D0F0752F87C049
:100390002FE508F0752F00D02FE52FF0E5D0F07590
:1003A0003042C030E508F0753000D030E530F0E57F
:1003B000D0F075319BC031E508F0753100D031E5E2
:1003C00031F0E5D0F07532B1C032E508F075320099
:1003D000D032E532F0E5D0F0753310C033E508F0E7
:1003E000753300D033E533F0E5D0F075341BC034FD
:1003F000E508F0753400D034E534F0E5D0F075351B
:10040000C5C035E508F0753500D035E535F0E5D0E7
:10041000F0753696C036E508F0753600D036E5360C
:10042000F0E5D0F07537B7C037E508F0753700D084
:1004300037E537F0E5D0F075385CC038E508F07581
:100440003800D038E538F0E5D0F07539C2C039E56C
:1004500008F0753900D039E539F0E5D0F0753A117A
:10046000C03AE508F0753A00D03AE53AF0E5D0F048
:10047000753B02C03BE508F0753B00D03BE53BF027
:10048000E5D0F0753CA3C03CE508F0753C00D03CDD
:10049000E53CF0E5D0F0753D83C03DE508F0753DE5
:1004A00000D03DE53DF0E5D0F0753E5CC03EE5088E
:1004B000F0753E00D03EE53EF0E5D0F0753F44C01B
:1004C0003FE508F0753F00D03FE53FF0E5D0F0751F
:1004D000409AC040E508F0754000D040E540F0E5A6
:1004E000D0F07541D4C041E508F0754100D041E538
:1004F00041F0E5D0F0754274C042E508F075420065
:10050000D042E542F0E5D0F07543BBC043E508F0CA
:10051000754300D043E543F0E5D0F075448AC0440C
:10052000E508F0754400D044E544F0E5D0F07545A9
:1005300068C045E508F0754500D045E545F0E5D0D3
:10054000F075468DC046E508F0754600D046E54694
:10055000F0E5D0F07547A1C047E508F0754700D039
:1005600047E547F0E5D0F0754876C048E508F075F6
:100570004800D048E548F0E5D0F0754910C049E59D
:1005800008F0754900D049E549F0E5D0F0754A8A90
:10059000C04AE508F0754A00D04AE54AF0E5D0F0D7
:1005A000754B1DC04BE508F0754B00D04BE54BF08B
:1005B000E5D0F0754CCAC04CE508F0754C00D04C45
:1005C000E54CF0E5D0F0754DD4C04DE508F0754D23
:1005D00000D04DE54DF0E5D0F0754EABC04EE508CE
:1005E000F0754E00D04EE54EF0E5D0F0754F79C075
:1005F0004FE508F0754F00D04FE54FF0E5D0F075AE
:100600005023C050E508F0755000D050E550F0E59B
:10061000D0F07551E5C051E508F0755100D051E5B5
:1006200051F0E5D0F075521EC052E508F075520049
:10063000D052E552F0E5D0F0755340C053E508F0D4
:10064000755300D053E553F0E5D0F075541DC054F8
:10065000E508F0755400D054E554F0E5D0F0755538
:100660008AC055E508F0755500D055E555F0E5D040
:10067000F075561AC056E508F0755600D056E55686
:10068000F0E5D0F0755704C057E508F0755700D075
:1006900057E557F0E5D0F07558D8C058E508F07523
:1006A0005800D058E558F0E5D0F0755946C059E5E6
:1006B00008F0755900D059E559F0E5D0F0755AD5D4
:1006C000C05AE508F0755A00D05AE55AF0E5D0F066
:1006D000755B57C05BE508F0755B00D05BE55BF0D0
:1006E000E5D0F0755C1CC05CE508F0755C00D05C82
:1006F000E55CF0E5D0F0755DB2C05DE508F0755DD4
:1007000000D05DE55DF0E5D0F0755ED7C05EE50830
:10071000F0755E00D05EE55EF0E5D0F0755F1DC05F
:100720005FE508F0755F00D05FE55FF0E5D0F0753C
:100730006063C060E508F0756000D060E560F0E5DA
:10074000D0F07561C8C061E508F0756100D061E561
:1007500061F0E5D0F0756219C062E508F0756200DD
:10076000D062E562F0E5D0F07563D8C063E508F0CB
:10077000756300D063E563F0E5D0F0756446C0644E
:10078000E508F0756400D064E564F0E5D0F07565C7
:1007900032C065E508F0756500D065E565F0E5D027
:1007A000F07566AEC066E508F0756600D066E56671
:1007B000F0E5D0F075679AC067E508F0756700D07E
:1007C00067E567F0E5D0F0756881C068E508F07509
:1007D0006800D068E568F0E5D0F07569B2C069E5F9
:1007E00008F0756900D069E569F0E5D0F0756A3DFB
:1007F000C06AE508F0756A00D06AE56AF0E5D0F0F5
:10080000756BA6C06BE508F0756B00D06BE56BF0FF
:10081000E5D0F0756CE2C06CE508F0756C00D06C4A
:10082000E56CF0E5D0F0756D02C06DE508F0756D12
:1008300000D06DE56DF0E5D0F0756E05C06EE50891
:10084000F0756E00D06EE56EF0E5D0F0756F55C0B6
:100850006FE508F0756F00D06FE56FF0E5D0F075CB
:100860007016C070E508F0757000D070E570F0E5A6
:10087000D0F0757176C071E508F0757100D071E542
:1008800071F0E5D0F07572ACC072E508F0757200D9
:10089000D072E572F0E5D0F0757383C073E508F0AF
:1008A000757300D073E573F0E5D0F0757458C074BB
:1008B000E508F0757400D074E574F0E5D0F0757556
:1008C000D9C075E508F0757500D075E575F0E5D00F
:1008D000F075763AC076E508F0757600D076E57664
:1008E000F0E5D0F075778DC077E508F0757700D02A
:1008F00077E577F0E5D0F0757855C078E508F075C4
:100900007800D078E578F0E5D0F075799BC079E58E
:1009100008F0757900D079E579F0E5D0F0757A6363
:10092000C07AE508F0757A00D07AE57AF0E5D0F083
:10093000757BACC07BE508F0757B00D07BE57BF078
:10094000E5D0F0757CBDC07CE508F0757C00D07CFE
:10095000E57CF0E5D0F0757D2BC07DE508F0757D78
:1009600000D07DE57DF0E5D0F0757E44C07EE508E1
:10097000F0757E00D07EE57EF0E5D0F0757FA6C0F4
:100980007FE508F0757F00D07FE57FF0E5D0F0755A
:100990008CE2C08CE508F0758C00D08CE58CF0E51D
:1009A000D0F0758D03C08DE508F0758D00D08DE514
:1009B0008DF0E5D0F0758AD4C08AE508F0758A001C
:1009C000D08AE58AF0E5D0F0758BCBC08BE508F0D6
:1009D000758B00D08BE58BF0E5D0F0758107C08179
:1009E000E508F0758100D081E581F0E5D0F07589EA
:1009F0005CC089E508F0758900D089E589F0E5D00B
:100A0000F0758803C088E508F0758800D088E5880F
:100A1000F0E5D0F0759807C098E508F0759800D01B
:100A200098E598F0E5D0F075F060C0F0E508F07555
:100A3000F000D0F0E5F0F0E5D0F075E02AC0E0E598
:100A400008F075E000D0E0E5E0F0E5D0F075D045C5
:100A5000C0D0E508F075D000D0D0E5D0F0E5D0F0FA
:100A6000758283C082E508F0758200D082E582F04D
:100A7000E5D0F0758324C083E508F0758300D0834A
:080A8000E583F0E5D0F080FEF3
:00000001FF
