:1000000075820075830075D000E5D0F0AE828E0059
:10001000E500F0E5D0F0058205820582AE828E0112
:10002000E501F0E5D0F0058205820582AE828E0200
:10003000E502F0E5D0F0058205820582AE828E03EE
:10004000E503F0E5D0F0058205820582AE828E04DC
:10005000E504F0E5D0F0058205820582AE828E05CA
:10006000E505F0E5D0F0058205820582AE828E06B8
:10007000E506F0E5D0F0058205820582AE828E07A6
:10008000E507F0E5D0F0058205820582AE828E0894
:10009000E508F0E5D0F0058205820582AE828E0982
:1000A000E509F0E5D0F0058205820582AE828E0A70
:1000B000E50AF0E5D0F0058205820582AE828E0B5E
:1000C000E50BF0E5D0F0058205820582AE828E0C4C
:1000D000E50CF0E5D0F0058205820582AE828E0D3A
:1000E000E50DF0E5D0F0058205820582AE828E0E28
:1000F000E50EF0E5D0F0058205820582AE828E0F16
:10010000E50FF0E5D0F0058205820582AE828E1003
:10011000E510F0E5D0F0058205820582AE828E11F1
:10012000E511F0E5D0F0058205820582AE828E12DF
:10013000E512F0E5D0F0058205820582AE828E13CD
:10014000E513F0E5D0F0058205820582AE828E14BB
:10015000E514F0E5D0F0058205820582AE828E15A9
:10016000E515F0E5D0F0058205820582AE828E1697
:10017000E516F0E5D0F0058205820582AE828E1785
:10018000E517F0E5D0F0058205820582AE828E1873
:10019000E518F0E5D0F0058205820582AE828E1961
:1001A000E519F0E5D0F0058205820582AE828E1A4F
:1001B000E51AF0E5D0F0058205820582AE828E1B3D
:1001C000E51BF0E5D0F0058205820582AE828E1C2B
:1001D000E51CF0E5D0F0058205820582AE828E1D19
:1001E000E51DF0E5D0F0058205820582AE828E1E07
:1001F000E51EF0E5D0F0058205820582AE828E1FF5
:10020000E51FF0E5D0F0058205820582AE828E20E2
:10021000E520F0E5D0F0058205820582AE828E21D0
:10022000E521F0E5D0F0058205820582AE828E22BE
:10023000E522F0E5D0F0058205820582AE828E23AC
:10024000E523F0E5D0F0058205820582AE828E249A
:10025000E524F0E5D0F0058205820582AE828E2588
:10026000E525F0E5D0F0058205820582AE828E2676
:10027000E526F0E5D0F0058205820582AE828E2764
:10028000E527F0E5D0F0058205820582AE828E2852
:10029000E528F0E5D0F0058205820582AE828E2940
:1002A000E529F0E5D0F0058205820582AE828E2A2E
:1002B000E52AF0E5D0F0058205820582AE828E2B1C
:1002C000E52BF0E5D0F0058205820582AE828E2C0A
:1002D000E52CF0E5D0F0058205820582AE828E2DF8
:1002E000E52DF0E5D0F0058205820582AE828E2EE6
:1002F000E52EF0E5D0F0058205820582AE828E2FD4
:10030000E52FF0E5D0F0058205820582AE828E30C1
:10031000E530F0E5D0F0058205820582AE828E31AF
:10032000E531F0E5D0F0058205820582AE828E329D
:10033000E532F0E5D0F0058205820582AE828E338B
:10034000E533F0E5D0F0058205820582AE828E3479
:10035000E534F0E5D0F0058205820582AE828E3567
:10036000E535F0E5D0F0058205820582AE828E3655
:10037000E536F0E5D0F0058205820582AE828E3743
:10038000E537F0E5D0F0058205820582AE828E3831
:10039000E538F0E5D0F0058205820582AE828E391F
:1003A000E539F0E5D0F0058205820582AE828E3A0D
:1003B000E53AF0E5D0F0058205820582AE828E3BFB
:1003C000E53BF0E5D0F0058205820582AE828E3CE9
:1003D000E53CF0E5D0F0058205820582AE828E3DD7
:1003E000E53DF0E5D0F0058205820582AE828E3EC5
:1003F000E53EF0E5D0F0058205820582AE828E3FB3
:10040000E53FF0E5D0F0058205820582AE828E40A0
:10041000E540F0E5D0F0058205820582AE828E418E
:10042000E541F0E5D0F0058205820582AE828E427C
:10043000E542F0E5D0F0058205820582AE828E436A
:10044000E543F0E5D0F0058205820582AE828E4458
:10045000E544F0E5D0F0058205820582AE828E4546
:10046000E545F0E5D0F0058205820582AE828E4634
:10047000E546F0E5D0F0058205820582AE828E4722
:10048000E547F0E5D0F0058205820582AE828E4810
:10049000E548F0E5D0F0058205820582AE828E49FE
:1004A000E549F0E5D0F0058205820582AE828E4AEC
:1004B000E54AF0E5D0F0058205820582AE828E4BDA
:1004C000E54BF0E5D0F0058205820582AE828E4CC8
:1004D000E54CF0E5D0F0058205820582AE828E4DB6
:1004E000E54DF0E5D0F0058205820582AE828E4EA4
:1004F000E54EF0E5D0F0058205820582AE828E4F92
:10050000E54FF0E5D0F0058205820582AE828E507F
:10051000E550F0E5D0F0058205820582AE828E516D
:10052000E551F0E5D0F0058205820582AE828E525B
:10053000E552F0E5D0F0058205820582AE828E5349
:10054000E553F0E5D0F0058205820582AE828E5437
:10055000E554F0E5D0F0058205820582AE828E5525
:10056000E555F0E5D0F0058205820582AE828E5613
:10057000E556F0E5D0F0058205820582AE828E5701
:10058000E557F0E5D0F0058205820582AE828E58EF
:10059000E558F0E5D0F0058205820582AE828E59DD
:1005A000E559F0E5D0F0058205820582AE828E5ACB
:1005B000E55AF0E5D0F0058205820582AE828E5BB9
:1005C000E55BF0E5D0F0058205820582AE828E5CA7
:1005D000E55CF0E5D0F0058205820582AE828E5D95
:1005E000E55DF0E5D0F0058205820582AE828E5E83
:1005F000E55EF0E5D0F0058205820582AE828E5F71
:10060000E55FF0E5D0F0058205820582AE828E605E
:10061000E560F0E5D0F0058205820582AE828E614C
:10062000E561F0E5D0F0058205820582AE828E623A
:10063000E562F0E5D0F0058205820582AE828E6328
:10064000E563F0E5D0F0058205820582AE828E6416
:10065000E564F0E5D0F0058205820582AE828E6504
:10066000E565F0E5D0F0058205820582AE828E66F2
:10067000E566F0E5D0F0058205820582AE828E67E0
:10068000E567F0E5D0F0058205820582AE828E68CE
:10069000E568F0E5D0F0058205820582AE828E69BC
:1006A000E569F0E5D0F0058205820582AE828E6AAA
:1006B000E56AF0E5D0F0058205820582AE828E6B98
:1006C000E56BF0E5D0F0058205820582AE828E6C86
:1006D000E56CF0E5D0F0058205820582AE828E6D74
:1006E000E56DF0E5D0F0058205820582AE828E6E62
:1006F000E56EF0E5D0F0058205820582AE828E6F50
:10070000E56FF0E5D0F0058205820582AE828E703D
:10071000E570F0E5D0F0058205820582AE828E712B
:10072000E571F0E5D0F0058205820582AE828E7219
:10073000E572F0E5D0F0058205820582AE828E7307
:10074000E573F0E5D0F0058205820582AE828E74F5
:10075000E574F0E5D0F0058205820582AE828E75E3
:10076000E575F0E5D0F0058205820582AE828E76D1
:10077000E576F0E5D0F0058205820582AE828E77BF
:10078000E577F0E5D0F0058205820582AE828E78AD
:10079000E578F0E5D0F0058205820582AE828E799B
:1007A000E579F0E5D0F0058205820582AE828E7A89
:1007B000E57AF0E5D0F0058205820582AE828E7B77
:1007C000E57BF0E5D0F0058205820582AE828E7C65
:1007D000E57CF0E5D0F0058205820582AE828E7D53
:1007E000E57DF0E5D0F0058205820582AE828E7E41
:1007F000E57EF0E5D0F0058205820582AE828E7F2F
:10080000E57FF0E5D0F0058205820582AE828E8C10
:10081000E58CF0E5D0F0058205820582AE828E8DF2
:10082000E58DF0E5D0F0058205820582AE828E8AE4
:10083000E58AF0E5D0F0058205820582AE828E8BD6
:10084000E58BF0E5D0F0058205820582AE828E81CF
:10085000E581F0E5D0F0058205820582AE828E89C1
:10086000E589F0E5D0F0058205820582AE828E88AA
:10087000E588F0E5D0F0058205820582AE828E988B
:10088000E598F0E5D0F0058205820582AE828EF013
:10089000E5F0F0E5D0F0058205820582AE828EE0BB
:1008A000E5E0F0E5D0F0058205820582AE828ED0CB
:1008B000E5D0F0E5D0F0058205820582AE828E8219
:1008C000E582F0E5D0F0058205820582AE828E8356
:0E08D000E583F0E5D0F005820582058280FE0A
:00000001FF
