:1000000075820075830075D000E5D0F0858200E52B
:1000100083C39500F0E5D0F0858200E583D3950099
:10002000F0E5D0F0858283E58303F58305820582C0
:100030000582858201E583C39501F0E5D0F08582D4
:1000400001E583D39501F0E5D0F0858283E5830354
:10005000F583058205820582858202E583C39502C8
:10006000F0E5D0F0858202E583D39502F0E5D0F08B
:10007000858283E58303F583058205820582858277
:1000800003E583C39503F0E5D0F0858203E583D3D0
:100090009503F0E5D0F0858283E58303F58305823F
:1000A00005820582858204E583C39504F0E5D0F0DE
:1000B000858204E583D39504F0E5D0F0858283E55D
:1000C0008303F583058205820582858205E583C366
:1000D0009505F0E5D0F0858205E583D39505F0E53B
:1000E000D0F0858283E58303F5830582058205824E
:1000F000858206E583C39506F0E5D0F0858206E5A6
:1001000083D39506F0E5D0F0858283E58303F583FC
:10011000058205820582858207E583C39507F0E5A0
:10012000D0F0858207E583D39507F0E5D0F085828E
:1001300083E58303F583058205820582858208E5D0
:1001400083C39508F0E5D0F0858208E583D3950850
:10015000F0E5D0F0858283E58303F583058205828F
:100160000582858209E583C39509F0E5D0F0858293
:1001700009E583D39509F0E5D0F0858283E5830313
:10018000F58305820582058285820AE583C3950A87
:10019000F0E5D0F085820AE583D3950AF0E5D0F04A
:1001A000858283E58303F583058205820582858246
:1001B0000BE583C3950BF0E5D0F085820BE583D387
:1001C000950BF0E5D0F0858283E58303F583058206
:1001D0000582058285820CE583C3950CF0E5D0F09D
:1001E00085820CE583D3950CF0E5D0F0858283E51C
:1001F0008303F58305820582058285820DE583C32D
:10020000950DF0E5D0F085820DE583D3950DF0E5F1
:10021000D0F0858283E58303F5830582058205821C
:1002200085820EE583C3950EF0E5D0F085820EE55C
:1002300083D3950EF0E5D0F0858283E58303F583C3
:1002400005820582058285820FE583C3950FF0E55F
:10025000D0F085820FE583D3950FF0E5D0F085824D
:1002600083E58303F583058205820582858210E597
:1002700083C39510F0E5D0F0858210E583D3951007
:10028000F0E5D0F0858283E58303F583058205825E
:100290000582858211E583C39511F0E5D0F0858252
:1002A00011E583D39511F0E5D0F0858283E58303D2
:1002B000F583058205820582858212E583C3951246
:1002C000F0E5D0F0858212E583D39512F0E5D0F009
:1002D000858283E58303F583058205820582858215
:1002E00013E583C39513F0E5D0F0858213E583D33E
:1002F0009513F0E5D0F0858283E58303F5830582CD
:1003000005820582858214E583C39514F0E5D0F05B
:10031000858214E583D39514F0E5D0F0858283E5DA
:100320008303F583058205820582858215E583C3F3
:100330009515F0E5D0F0858215E583D39515F0E5A8
:10034000D0F0858283E58303F583058205820582EB
:10035000858216E583C39516F0E5D0F0858216E513
:1003600083D39516F0E5D0F0858283E58303F5838A
:10037000058205820582858217E583C39517F0E51E
:10038000D0F0858217E583D39517F0E5D0F085820C
:1003900083E58303F583058205820582858218E55E
:1003A00083C39518F0E5D0F0858218E583D39518BE
:1003B000F0E5D0F0858283E58303F583058205822D
:1003C0000582858219E583C39519F0E5D0F0858211
:1003D00019E583D39519F0E5D0F0858283E5830391
:1003E000F58305820582058285821AE583C3951A05
:1003F000F0E5D0F085821AE583D3951AF0E5D0F0C8
:10040000858283E58303F5830582058205828582E3
:100410001BE583C3951BF0E5D0F085821BE583D3F4
:10042000951BF0E5D0F0858283E58303F583058293
:100430000582058285821CE583C3951CF0E5D0F01A
:1004400085821CE583D3951CF0E5D0F0858283E599
:100450008303F58305820582058285821DE583C3BA
:10046000951DF0E5D0F085821DE583D3951DF0E55F
:10047000D0F0858283E58303F583058205820582BA
:1004800085821EE583C3951EF0E5D0F085821EE5CA
:1004900083D3951EF0E5D0F0858283E58303F58351
:1004A00005820582058285821FE583C3951FF0E5DD
:1004B000D0F085821FE583D3951FF0E5D0F08582CB
:1004C00083E58303F583058205820582858220E525
:1004D00083C39520F0E5D0F0858220E583D3952075
:1004E000F0E5D0F0858283E58303F58305820582FC
:1004F0000582858221E583C39521F0E5D0F08582D0
:1005000021E583D39521F0E5D0F0858283E583034F
:10051000F583058205820582858222E583C39522C3
:10052000F0E5D0F0858222E583D39522F0E5D0F086
:10053000858283E58303F5830582058205828582B2
:1005400023E583C39523F0E5D0F0858223E583D3AB
:100550009523F0E5D0F0858283E58303F58305825A
:1005600005820582858224E583C39524F0E5D0F0D9
:10057000858224E583D39524F0E5D0F0858283E558
:100580008303F583058205820582858225E583C381
:100590009525F0E5D0F0858225E583D39525F0E516
:1005A000D0F0858283E58303F58305820582058289
:1005B000858226E583C39526F0E5D0F0858226E581
:1005C00083D39526F0E5D0F0858283E58303F58318
:1005D000058205820582858227E583C39527F0E59C
:1005E000D0F0858227E583D39527F0E5D0F085828A
:1005F00083E58303F583058205820582858228E5EC
:1006000083C39528F0E5D0F0858228E583D395282B
:10061000F0E5D0F0858283E58303F58305820582CA
:100620000582858229E583C39529F0E5D0F085828E
:1006300029E583D39529F0E5D0F0858283E583030E
:10064000F58305820582058285822AE583C3952A82
:10065000F0E5D0F085822AE583D3952AF0E5D0F045
:10066000858283E58303F583058205820582858281
:100670002BE583C3952BF0E5D0F085822BE583D362
:10068000952BF0E5D0F0858283E58303F583058221
:100690000582058285822CE583C3952CF0E5D0F098
:1006A00085822CE583D3952CF0E5D0F0858283E517
:1006B0008303F58305820582058285822DE583C348
:1006C000952DF0E5D0F085822DE583D3952DF0E5CD
:1006D000D0F0858283E58303F58305820582058258
:1006E00085822EE583C3952EF0E5D0F085822EE538
:1006F00083D3952EF0E5D0F0858283E58303F583DF
:1007000005820582058285822FE583C3952FF0E55A
:10071000D0F085822FE583D3952FF0E5D0F0858248
:1007200083E58303F583058205820582858230E5B2
:1007300083C39530F0E5D0F0858230E583D39530E2
:10074000F0E5D0F0858283E58303F5830582058299
:100750000582858231E583C39531F0E5D0F085824D
:1007600031E583D39531F0E5D0F0858283E58303CD
:10077000F583058205820582858232E583C3953241
:10078000F0E5D0F0858232E583D39532F0E5D0F004
:10079000858283E58303F583058205820582858250
:1007A00033E583C39533F0E5D0F0858233E583D319
:1007B0009533F0E5D0F0858283E58303F5830582E8
:1007C00005820582858234E583C39534F0E5D0F057
:1007D000858234E583D39534F0E5D0F0858283E5D6
:1007E0008303F583058205820582858235E583C30F
:1007F0009535F0E5D0F0858235E583D39535F0E584
:10080000D0F0858283E58303F58305820582058226
:10081000858236E583C39536F0E5D0F0858236E5EE
:1008200083D39536F0E5D0F0858283E58303F583A5
:10083000058205820582858237E583C39537F0E519
:10084000D0F0858237E583D39537F0E5D0F0858207
:1008500083E58303F583058205820582858238E579
:1008600083C39538F0E5D0F0858238E583D3953899
:10087000F0E5D0F0858283E58303F5830582058268
:100880000582858239E583C39539F0E5D0F085820C
:1008900039E583D39539F0E5D0F0858283E583038C
:1008A000F58305820582058285823AE583C3953A00
:1008B000F0E5D0F085823AE583D3953AF0E5D0F0C3
:1008C000858283E58303F58305820582058285821F
:1008D0003BE583C3953BF0E5D0F085823BE583D3D0
:1008E000953BF0E5D0F0858283E58303F5830582AF
:1008F0000582058285823CE583C3953CF0E5D0F016
:1009000085823CE583D3953CF0E5D0F0858283E594
:100910008303F58305820582058285823DE583C3D5
:10092000953DF0E5D0F085823DE583D3953DF0E53A
:10093000D0F0858283E58303F583058205820582F5
:1009400085823EE583C3953EF0E5D0F085823EE5A5
:1009500083D3953EF0E5D0F0858283E58303F5836C
:1009600005820582058285823FE583C3953FF0E5D8
:10097000D0F085823FE583D3953FF0E5D0F08582C6
:1009800083E58303F583058205820582858240E540
:1009900083C39540F0E5D0F0858240E583D3954050
:1009A000F0E5D0F0858283E58303F5830582058237
:1009B0000582858241E583C39541F0E5D0F08582CB
:1009C00041E583D39541F0E5D0F0858283E583034B
:1009D000F583058205820582858242E583C39542BF
:1009E000F0E5D0F0858242E583D39542F0E5D0F082
:1009F000858283E58303F5830582058205828582EE
:100A000043E583C39543F0E5D0F0858243E583D386
:100A10009543F0E5D0F0858283E58303F583058275
:100A200005820582858244E583C39544F0E5D0F0D4
:100A3000858244E583D39544F0E5D0F0858283E553
:100A40008303F583058205820582858245E583C39C
:100A50009545F0E5D0F0858245E583D39545F0E5F1
:100A6000D0F0858283E58303F583058205820582C4
:100A7000858246E583C39546F0E5D0F0858246E55C
:100A800083D39546F0E5D0F0858283E58303F58333
:100A9000058205820582858247E583C39547F0E597
:100AA000D0F0858247E583D39547F0E5D0F0858285
:100AB00083E58303F583058205820582858248E507
:100AC00083C39548F0E5D0F0858248E583D3954807
:100AD000F0E5D0F0858283E58303F5830582058206
:100AE0000582858249E583C39549F0E5D0F085828A
:100AF00049E583D39549F0E5D0F0858283E583030A
:100B0000F58305820582058285824AE583C3954A7D
:100B1000F0E5D0F085824AE583D3954AF0E5D0F040
:100B2000858283E58303F5830582058205828582BC
:100B30004BE583C3954BF0E5D0F085824BE583D33D
:100B4000954BF0E5D0F0858283E58303F58305823C
:100B50000582058285824CE583C3954CF0E5D0F093
:100B600085824CE583D3954CF0E5D0F0858283E512
:100B70008303F58305820582058285824DE583C363
:100B8000954DF0E5D0F085824DE583D3954DF0E5A8
:100B9000D0F0858283E58303F58305820582058293
:100BA00085824EE583C3954EF0E5D0F085824EE513
:100BB00083D3954EF0E5D0F0858283E58303F583FA
:100BC00005820582058285824FE583C3954FF0E556
:100BD000D0F085824FE583D3954FF0E5D0F0858244
:100BE00083E58303F583058205820582858250E5CE
:100BF00083C39550F0E5D0F0858250E583D39550BE
:100C0000F0E5D0F0858283E58303F58305820582D4
:100C10000582858251E583C39551F0E5D0F0858248
:100C200051E583D39551F0E5D0F0858283E58303C8
:100C3000F583058205820582858252E583C395523C
:100C4000F0E5D0F0858252E583D39552F0E5D0F0FF
:100C5000858283E58303F58305820582058285828B
:100C600053E583C39553F0E5D0F0858253E583D3F4
:100C70009553F0E5D0F0858283E58303F583058203
:100C800005820582858254E583C39554F0E5D0F052
:100C9000858254E583D39554F0E5D0F0858283E5D1
:100CA0008303F583058205820582858255E583C32A
:100CB0009555F0E5D0F0858255E583D39555F0E55F
:100CC000D0F0858283E58303F58305820582058262
:100CD000858256E583C39556F0E5D0F0858256E5CA
:100CE00083D39556F0E5D0F0858283E58303F583C1
:100CF000058205820582858257E583C39557F0E515
:100D0000D0F0858257E583D39557F0E5D0F0858202
:100D100083E58303F583058205820582858258E594
:100D200083C39558F0E5D0F0858258E583D3955874
:100D3000F0E5D0F0858283E58303F58305820582A3
:100D40000582858259E583C39559F0E5D0F0858207
:100D500059E583D39559F0E5D0F0858283E5830387
:100D6000F58305820582058285825AE583C3955AFB
:100D7000F0E5D0F085825AE583D3955AF0E5D0F0BE
:100D8000858283E58303F58305820582058285825A
:100D90005BE583C3955BF0E5D0F085825BE583D3AB
:100DA000955BF0E5D0F0858283E58303F5830582CA
:100DB0000582058285825CE583C3955CF0E5D0F011
:100DC00085825CE583D3955CF0E5D0F0858283E590
:100DD0008303F58305820582058285825DE583C3F1
:100DE000955DF0E5D0F085825DE583D3955DF0E516
:100DF000D0F0858283E58303F58305820582058231
:100E000085825EE583C3955EF0E5D0F085825EE580
:100E100083D3955EF0E5D0F0858283E58303F58387
:100E200005820582058285825FE583C3955FF0E5D3
:100E3000D0F085825FE583D3955FF0E5D0F08582C1
:100E400083E58303F583058205820582858260E55B
:100E500083C39560F0E5D0F0858260E583D395602B
:100E6000F0E5D0F0858283E58303F5830582058272
:100E70000582858261E583C39561F0E5D0F08582C6
:100E800061E583D39561F0E5D0F0858283E5830346
:100E9000F583058205820582858262E583C39562BA
:100EA000F0E5D0F0858262E583D39562F0E5D0F07D
:100EB000858283E58303F583058205820582858229
:100EC00063E583C39563F0E5D0F0858263E583D362
:100ED0009563F0E5D0F0858283E58303F583058291
:100EE00005820582858264E583C39564F0E5D0F0D0
:100EF000858264E583D39564F0E5D0F0858283E54F
:100F00008303F583058205820582858265E583C3B7
:100F10009565F0E5D0F0858265E583D39565F0E5CC
:100F2000D0F0858283E58303F583058205820582FF
:100F3000858266E583C39566F0E5D0F0858266E537
:100F400083D39566F0E5D0F0858283E58303F5834E
:100F5000058205820582858267E583C39567F0E592
:100F6000D0F0858267E583D39567F0E5D0F0858280
:100F700083E58303F583058205820582858268E522
:100F800083C39568F0E5D0F0858268E583D39568E2
:100F9000F0E5D0F0858283E58303F5830582058241
:100FA0000582858269E583C39569F0E5D0F0858285
:100FB00069E583D39569F0E5D0F0858283E5830305
:100FC000F58305820582058285826AE583C3956A79
:100FD000F0E5D0F085826AE583D3956AF0E5D0F03C
:100FE000858283E58303F5830582058205828582F8
:100FF0006BE583C3956BF0E5D0F085826BE583D319
:10100000956BF0E5D0F0858283E58303F583058257
:101010000582058285826CE583C3956CF0E5D0F08E
:1010200085826CE583D3956CF0E5D0F0858283E50D
:101030008303F58305820582058285826DE583C37E
:10104000956DF0E5D0F085826DE583D3956DF0E583
:10105000D0F0858283E58303F583058205820582CE
:1010600085826EE583C3956EF0E5D0F085826EE5EE
:1010700083D3956EF0E5D0F0858283E58303F58315
:1010800005820582058285826FE583C3956FF0E551
:10109000D0F085826FE583D3956FF0E5D0F085823F
:1010A00083E58303F583058205820582858270E5E9
:1010B00083C39570F0E5D0F0858270E583D3957099
:1010C000F0E5D0F0858283E58303F5830582058210
:1010D0000582858271E583C39571F0E5D0F0858244
:1010E00071E583D39571F0E5D0F0858283E58303C4
:1010F000F583058205820582858272E583C3957238
:10110000F0E5D0F0858272E583D39572F0E5D0F0FA
:10111000858283E58303F5830582058205828582C6
:1011200073E583C39573F0E5D0F0858273E583D3CF
:101130009573F0E5D0F0858283E58303F58305821E
:1011400005820582858274E583C39574F0E5D0F04D
:10115000858274E583D39574F0E5D0F0858283E5CC
:101160008303F583058205820582858275E583C345
:101170009575F0E5D0F0858275E583D39575F0E53A
:10118000D0F0858283E58303F5830582058205829D
:10119000858276E583C39576F0E5D0F0858276E5A5
:1011A00083D39576F0E5D0F0858283E58303F583DC
:1011B000058205820582858277E583C39577F0E510
:1011C000D0F0858277E583D39577F0E5D0F08582FE
:1011D00083E58303F583058205820582858278E5B0
:1011E00083C39578F0E5D0F0858278E583D3957850
:1011F000F0E5D0F0858283E58303F58305820582DF
:101200000582858279E583C39579F0E5D0F0858202
:1012100079E583D39579F0E5D0F0858283E5830382
:10122000F58305820582058285827AE583C3957AF6
:10123000F0E5D0F085827AE583D3957AF0E5D0F0B9
:10124000858283E58303F583058205820582858295
:101250007BE583C3957BF0E5D0F085827BE583D386
:10126000957BF0E5D0F0858283E58303F5830582E5
:101270000582058285827CE583C3957CF0E5D0F00C
:1012800085827CE583D3957CF0E5D0F0858283E58B
:101290008303F58305820582058285827DE583C30C
:1012A000957DF0E5D0F085827DE583D3957DF0E5F1
:1012B000D0F0858283E58303F5830582058205826C
:1012C00085827EE583C3957EF0E5D0F085827EE55C
:1012D00083D3957EF0E5D0F0858283E58303F583A3
:1012E00005820582058285827FE583C3957FF0E5CF
:1012F000D0F085827FE583D3957FF0E5D0F08582BD
:1013000083E58303F58305820582058285828CE56A
:1013100083C3958CF0E5D0F085828CE583D3958CE2
:10132000F0E5D0F0858283E58303F58305820582AD
:10133000058285828DE583C3958DF0E5D0F08582A9
:101340008DE583D3958DF0E5D0F0858283E5830329
:10135000F58305820582058285828AE583C3958AA5
:10136000F0E5D0F085828AE583D3958AF0E5D0F068
:10137000858283E58303F583058205820582858264
:101380008BE583C3958BF0E5D0F085828BE583D325
:10139000958BF0E5D0F0858283E58303F5830582A4
:1013A00005820582858281E583C39581F0E5D0F0D1
:1013B000858281E583D39581F0E5D0F0858283E550
:1013C0008303F583058205820582858289E583C3CF
:1013D0009589F0E5D0F0858289E583D39589F0E59C
:1013E000D0F0858283E58303F5830582058205823B
:1013F000858288E583C39588F0E5D0F0858288E50D
:1014000083D39588F0E5D0F0858283E58303F58367
:10141000058205820582858298E583C39598F0E56B
:10142000D0F0858298E583D39598F0E5D0F0858259
:1014300083E58303F5830582058205828582F0E5D5
:1014400083C395F0F0E5D0F08582F0E583D395F085
:10145000F0E5D0F0858283E58303F583058205827C
:1014600005828582E0E583C395E0F0E5D0F08582D2
:10147000E0E583D395E0F0E5D0F0858283E5830352
:10148000F5830582058205828582D0E583C395D0E8
:10149000F0E5D0F08582D0E583D395D0F0E5D0F0AB
:1014A000858283E58303F583058205820582858233
:1014B00082E583C39582F0E5D0F0858282E583D30F
:1014C0009582F0E5D0F0858283E58303F58305827C
:1014D00005820582858283E583C39583F0E5D0F09C
:1014E000858283E583D39583F0E5D0F0858283E51B
:0C14F0008303F58305820582058280FEDF
:00000001FF
